2019092519000300001V0000111962467-01            00001RAFK2M  000012019090220190808ｺ2113立川ベース　　　　　　　105093308133ﾀ52934993973578415COM-4C-PE                          ZCO-COM4CPE                             ＲＳ−２３２Ｃ通信ボード　４ｃｈ　ＰＣＩ　Ｅｘｐｒ　　　　　　　　　　　　　　　00000000309750000000020000000000000000001         2019080801            　　　　　　　　　　　　　　　　　　　　　　　　　　　　　　0000000000            　　　　　　　　　　　　　　　　　　　　　　　　　　　　　　00000000200
2019092519000300002V0000111962467-02            00002RAFK2M  000022019090220190808ｺ2113立川ベース　　　　　　　105093308133ﾀ52934993973578415COM-4C-PE                          ZCO-COM4CPE                             ＲＳ−２３２Ｃ通信ボード　４ｃｈ　ＰＣＩ　Ｅｘｐｒ　　　　　　　　　　　　　　　00000000309750000000010000000000000000001         2019080801            　　　　　　　　　　　　　　　　　　　　　　　　　　　　　　0000000000            　　　　　　　　　　　　　　　　　　　　　　　　　　　　　　00000000100
2019092519000300003V0000111962467-03            00003RAFK2M  000032019090220190808ｺ2113立川ベース　　　　　　　105093308133ﾀ52934993973533636PCE37/9PS                          ZCO-PCE379PS                            ＣＯＭ−４ｃｈ（３７ピン）用分配ケーブル　　　　　　　　　　　　　　　　　　　　00000000074900000000020000000000000000001         2019080801            　　　　　　　　　　　　　　　　　　　　　　　　　　　　　　0000000000            　　　　　　　　　　　　　　　　　　　　　　　　　　　　　　00000000200
2019092519000300004V0000111962467-04            00004RAFK2M  000042019090220190808ｺ2113立川ベース　　　　　　　105093308133ﾀ52934993973533636PCE37/9PS                          ZCO-PCE379PS                            ＣＯＭ−４ｃｈ（３７ピン）用分配ケーブル　　　　　　　　　　　　　　　　　　　　00000000074900000000010000000000000000001         2019080801            　　　　　　　　　　　　　　　　　　　　　　　　　　　　　　0000000000            　　　　　　　　　　　　　　　　　　　　　　　　　　　　　　00000000100
2019092519000300005V0000111980013-01            00001RAFK2P  000012019090520190808ｺ2113九州ベース　　　　　　　105093308133ﾀ52934993973579177SMC-4DL-PE                         ZCO-SMC4DLPE                            モーションコントロールボード　　　　　　　　　　　　　　　　　　　　　　　　　　00000000432750000000010000000000000000001         2019080801            　　　　　　　　　　　　　　　　　　　　　　　　　　　　　　0000000000            　　　　　　　　　　　　　　　　　　　　　　　　　　　　　　00000000100
2019092519000300006V0000111980013-02            00002RAFK2P  000022019090520190808ｺ2113九州ベース　　　　　　　105093308133ﾀ52934993973574639PCB100PS-5                         ZCO-PCB100PS5                           両端１００ピンコネクタ付シールドケーブル　5m　　　　　　　　　　　　　　　　　　00000000186000000000010000000000000000001         2019080801            　　　　　　　　　　　　　　　　　　　　　　　　　　　　　　0000000000            　　　　　　　　　　　　　　　　　　　　　　　　　　　　　　00000000100
2019092519000300007V0000111980013-03            00003RAFK2P  000032019090520190808ｺ2113九州ベース　　　　　　　105093308133ﾀ52934993973574578EPD-100A                           ZCO-EPD100A                             圧着用中継端子台（Ｍ３ネジ、１００点）　　　　　　　　　　　　　　　　　　　　　00000000177000000000010000000000000000001         2019080801            　　　　　　　　　　　　　　　　　　　　　　　　　　　　　　0000000000            　　　　　　　　　　　　　　　　　　　　　　　　　　　　　　00000000100
2019092519000300008V0000111980103-01            00001RAFK2N  000012019090520190808ｺ2113東京ベース　　　　　　　105093308133ﾀ52934993973578873DO-16TY-USB                        ZCO-DO16TYUSB                           非絶縁型デジタル出力ターミナル　　　　　　　　　　　　　　　　　　　　　　　　　00000000167760000000100000000000000000001         2019080801            　　　　　　　　　　　　　　　　　　　　　　　　　　　　　　0000000000            　　　　　　　　　　　　　　　　　　　　　　　　　　　　　　00000001000
2019092519000300009V0000111980103-02            00002RAFK2N  000022019090520190808ｺ2113東京ベース　　　　　　　105093308133ﾀ52934993973578873DO-16TY-USB                        ZCO-DO16TYUSB                           非絶縁型デジタル出力ターミナル　　　　　　　　　　　　　　　　　　　　　　　　　00000000167760000000710000000000000000001         2019080801            　　　　　　　　　　　　　　　　　　　　　　　　　　　　　　0000000000            　　　　　　　　　　　　　　　　　　　　　　　　　　　　　　00000007100
2019/09/25 0000009
2019092619000300001V0000111956732-01            00001RAFK2Q  000012019083020190808ｺ2113立川ベース　　　　　　　105093308133ﾀ52934993973599656DIO-1616B-LPE                      ZCO-DIO1616BLPE                         Low Profile対応絶縁型デジタル入出力ボード　　　　　　　　　　　　　　　　　　　 00000000285000000000030000000000000000001         2019080801            　　　　　　　　　　　　　　　　　　　　　　　　　　　　　　0000000000            　　　　　　　　　　　　　　　　　　　　　　　　　　　　　　00000000300
2019092619000300002V0000111962467-01            00001RAFK2M  000012019090220190808ｺ2113立川ベース　　　　　　　105093308133ﾀ52934993973578415COM-4C-PE                          ZCO-COM4CPE                             ＲＳ−２３２Ｃ通信ボード　４ｃｈ　ＰＣＩ　Ｅｘｐｒ　　　　　　　　　　　　　　　00000000309750000000020000000000000000001         2019080801            　　　　　　　　　　　　　　　　　　　　　　　　　　　　　　0000000000            　　　　　　　　　　　　　　　　　　　　　　　　　　　　　　00000000200
2019092619000300003V0000111962467-02            00002RAFK2M  000022019090220190808ｺ2113立川ベース　　　　　　　105093308133ﾀ52934993973578415COM-4C-PE                          ZCO-COM4CPE                             ＲＳ−２３２Ｃ通信ボード　４ｃｈ　ＰＣＩ　Ｅｘｐｒ　　　　　　　　　　　　　　　00000000309750000000010000000000000000001         2019080801            　　　　　　　　　　　　　　　　　　　　　　　　　　　　　　0000000000            　　　　　　　　　　　　　　　　　　　　　　　　　　　　　　00000000100
2019092619000300004V0000111962467-03            00003RAFK2M  000032019090220190808ｺ2113立川ベース　　　　　　　105093308133ﾀ52934993973533636PCE37/9PS                          ZCO-PCE379PS                            ＣＯＭ−４ｃｈ（３７ピン）用分配ケーブル　　　　　　　　　　　　　　　　　　　　00000000074900000000020000000000000000001         2019080801            　　　　　　　　　　　　　　　　　　　　　　　　　　　　　　0000000000            　　　　　　　　　　　　　　　　　　　　　　　　　　　　　　00000000200
2019092619000300005V0000111962467-04            00004RAFK2M  000042019090220190808ｺ2113立川ベース　　　　　　　105093308133ﾀ52934993973533636PCE37/9PS                          ZCO-PCE379PS                            ＣＯＭ−４ｃｈ（３７ピン）用分配ケーブル　　　　　　　　　　　　　　　　　　　　00000000074900000000010000000000000000001         2019080801            　　　　　　　　　　　　　　　　　　　　　　　　　　　　　　0000000000            　　　　　　　　　　　　　　　　　　　　　　　　　　　　　　00000000100
2019092619000300006V0000111963010-01            00001RAFK2R  000012019090220190808ｺ2113東京ベース　　　　　　　105093308133ﾀ52934993973599281AI-1608GY-USB                      ZCO-AI1608GYUSB                         高精度アナログ入出力ターミナル　　　　　　　　　　　　　　　　　　　　　　　　　00000000372000000000010000000000000000001         2019080801            　　　　　　　　　　　　　　　　　　　　　　　　　　　　　　0000000000            　　　　　　　　　　　　　　　　　　　　　　　　　　　　　　00000000100
2019092619000300007V0000311963247-01            00001RAFK2S  000012019090220190808ｺ2113名古屋ベース　　　　　　105093308133ﾀ52934993973532578EPD-37                             ZCO-DIO1616RYXUSB                       圧着用中継端子台　　　　　　　　　　　　　　　　　　　　　　　　　　　　　　　　00000000088500000000010000000000000000001         2019080801            　　　　　　　　　　　　　　　　　　　　　　　　　　　　　　0000000000            　　　　　　　　　　　　　　　　　　　　　　　　　　　　　　00000000100
2019092619000300008V0000111963247-02            00002RAFK2S  000022019090220190808ｺ2113名古屋ベース　　　　　　105093308133ﾀ52934993973532578EPD-37                             ZCO-EPD37                               圧着用中継端子台　　　　　　　　　　　　　　　　　　　　　　　　　　　　　　　　00000000088500000000010000000000000000001         2019080801            　　　　　　　　　　　　　　　　　　　　　　　　　　　　　　0000000000            　　　　　　　　　　　　　　　　　　　　　　　　　　　　　　00000000100
2019092619000300009V0000111980013-01            00001RAFK2P  000012019090520190808ｺ2113九州ベース　　　　　　　105093308133ﾀ52934993973579177SMC-4DL-PE                         ZCO-SMC4DLPE                            モーションコントロールボード　　　　　　　　　　　　　　　　　　　　　　　　　　00000000432750000000010000000000000000001         2019080801            　　　　　　　　　　　　　　　　　　　　　　　　　　　　　　0000000000            　　　　　　　　　　　　　　　　　　　　　　　　　　　　　　00000000100
2019092619000300010V0000111980013-02            00002RAFK2P  000022019090520190808ｺ2113九州ベース　　　　　　　105093308133ﾀ52934993973574639PCB100PS-5                         ZCO-PCB100PS5                           両端１００ピンコネクタ付シールドケーブル　5m　　　　　　　　　　　　　　　　　　00000000186000000000010000000000000000001         2019080801            　　　　　　　　　　　　　　　　　　　　　　　　　　　　　　0000000000            　　　　　　　　　　　　　　　　　　　　　　　　　　　　　　00000000100
2019092619000300011V0000111980013-03            00003RAFK2P  000032019090520190808ｺ2113九州ベース　　　　　　　105093308133ﾀ52934993973574578EPD-100A                           ZCO-EPD100A                             圧着用中継端子台（Ｍ３ネジ、１００点）　　　　　　　　　　　　　　　　　　　　　00000000177000000000010000000000000000001         2019080801            　　　　　　　　　　　　　　　　　　　　　　　　　　　　　　0000000000            　　　　　　　　　　　　　　　　　　　　　　　　　　　　　　00000000100
2019092619000300012V0000111980082-01            00001RAFK2T  000012019090520190808ｺ2113北陸ベース　　　　　　　105093308133ﾀ52934993973532554EPD-96                             ZCO-EPD96                               圧着用中継端子台（Ｍ３ネジ、９６点）　　　　　　　　　　　　　　　　　　　　　　00000000132750000000010000000000000000001         2019080801            　　　　　　　　　　　　　　　　　　　　　　　　　　　　　　0000000000            　　　　　　　　　　　　　　　　　　　　　　　　　　　　　　00000000100
2019092619000300013V0000111980082-02            00002RAFK2T  000022019090520190808ｺ2113北陸ベース　　　　　　　105093308133ﾀ52934993973568065PCB96PS-1.5P                       ZCO-PCB96PS15P                          両端９６ピンコネクタ付シールドケーブル　　　　　　　　　　　　　　　　　　　　　00000000106500000000010000000000000000001         2019080801            　　　　　　　　　　　　　　　　　　　　　　　　　　　　　　0000000000            　　　　　　　　　　　　　　　　　　　　　　　　　　　　　　00000000100
2019092619000300014V0000111980082-03            00003RAFK2T  000032019090520190808ｺ2113北陸ベース　　　　　　　105093308133ﾀ52934993973559544PO-64L(PCI)H                       ZCO-PO64LPCIH                           絶縁型デジタル出力ボード　　　　　　　　　　　　　　　　　　　　　　　　　　　　00000000309750000000010000000000000000001         2019080801            　　　　　　　　　　　　　　　　　　　　　　　　　　　　　　0000000000            　　　　　　　　　　　　　　　　　　　　　　　　　　　　　　00000000100
2019092619000300015V0000111980103-01            00001RAFK2N  000012019090520190808ｺ2113東京ベース　　　　　　　105093308133ﾀ52934993973578873DO-16TY-USB                        ZCO-DO16TYUSB                           非絶縁型デジタル出力ターミナル　　　　　　　　　　　　　　　　　　　　　　　　　00000000167760000000100000000000000000001         2019080801            　　　　　　　　　　　　　　　　　　　　　　　　　　　　　　0000000000            　　　　　　　　　　　　　　　　　　　　　　　　　　　　　　00000001000
2019092619000300016V0000111980103-02            00002RAFK2N  000022019090520190808ｺ2113東京ベース　　　　　　　105093308133ﾀ52934993973578873DO-16TY-USB                        ZCO-DO16TYUSB                           非絶縁型デジタル出力ターミナル　　　　　　　　　　　　　　　　　　　　　　　　　00000000167760000000710000000000000000001         2019080801            　　　　　　　　　　　　　　　　　　　　　　　　　　　　　　0000000000            　　　　　　　　　　　　　　　　　　　　　　　　　　　　　　00000007100
2019/09/26 0000016
2019092719000300001V0000111956732-01            00001RAFK2Q  000012019083020190808ｺ2113立川ベース　　　　　　　105093308133ﾀ52934993973599656DIO-1616B-LPE                      ZCO-DIO1616BLPE                         Low Profile対応絶縁型デジタル入出力ボード　　　　　　　　　　　　　　　　　　　 00000000285000000000030000000000000000001         2019080801            　　　　　　　　　　　　　　　　　　　　　　　　　　　　　　0000000000            　　　　　　　　　　　　　　　　　　　　　　　　　　　　　　00000000300
2019092719000300002V0000111962467-01            00001RAFK2M  000012019090220190808ｺ2113立川ベース　　　　　　　105093308133ﾀ52934993973578415COM-4C-PE                          ZCO-COM4CPE                             ＲＳ−２３２Ｃ通信ボード　４ｃｈ　ＰＣＩ　Ｅｘｐｒ　　　　　　　　　　　　　　　00000000309750000000020000000000000000001         2019080801            　　　　　　　　　　　　　　　　　　　　　　　　　　　　　　0000000000            　　　　　　　　　　　　　　　　　　　　　　　　　　　　　　00000000200
2019092719000300003V0000111962467-02            00002RAFK2M  000022019090220190808ｺ2113立川ベース　　　　　　　105093308133ﾀ52934993973578415COM-4C-PE                          ZCO-COM4CPE                             ＲＳ−２３２Ｃ通信ボード　４ｃｈ　ＰＣＩ　Ｅｘｐｒ　　　　　　　　　　　　　　　00000000309750000000010000000000000000001         2019080801            　　　　　　　　　　　　　　　　　　　　　　　　　　　　　　0000000000            　　　　　　　　　　　　　　　　　　　　　　　　　　　　　　00000000100
2019092719000300004V0000111962467-03            00003RAFK2M  000032019090220190808ｺ2113立川ベース　　　　　　　105093308133ﾀ52934993973533636PCE37/9PS                          ZCO-PCE379PS                            ＣＯＭ−４ｃｈ（３７ピン）用分配ケーブル　　　　　　　　　　　　　　　　　　　　00000000074900000000020000000000000000001         2019080801            　　　　　　　　　　　　　　　　　　　　　　　　　　　　　　0000000000            　　　　　　　　　　　　　　　　　　　　　　　　　　　　　　00000000200
2019092719000300005V0000111962467-04            00004RAFK2M  000042019090220190808ｺ2113立川ベース　　　　　　　105093308133ﾀ52934993973533636PCE37/9PS                          ZCO-PCE379PS                            ＣＯＭ−４ｃｈ（３７ピン）用分配ケーブル　　　　　　　　　　　　　　　　　　　　00000000074900000000010000000000000000001         2019080801            　　　　　　　　　　　　　　　　　　　　　　　　　　　　　　0000000000            　　　　　　　　　　　　　　　　　　　　　　　　　　　　　　00000000100
2019092719000300006V0000111963010-01            00001RAFK2R  000012019090220190808ｺ2113東京ベース　　　　　　　105093308133ﾀ52934993973599281AI-1608GY-USB                      ZCO-AI1608GYUSB                         高精度アナログ入出力ターミナル　　　　　　　　　　　　　　　　　　　　　　　　　00000000372000000000010000000000000000001         2019080801            　　　　　　　　　　　　　　　　　　　　　　　　　　　　　　0000000000            　　　　　　　　　　　　　　　　　　　　　　　　　　　　　　00000000100
2019092719000300007V0000311963247-01            00001RAFK2S  000012019090220190808ｺ2113名古屋ベース　　　　　　105093308133ﾀ52934993973532578EPD-37                             ZCO-DIO1616RYXUSB                       圧着用中継端子台　　　　　　　　　　　　　　　　　　　　　　　　　　　　　　　　00000000088500000000010000000000000000001         2019080801            　　　　　　　　　　　　　　　　　　　　　　　　　　　　　　0000000000            　　　　　　　　　　　　　　　　　　　　　　　　　　　　　　00000000100
2019092719000300008V0000111963247-02            00002RAFK2S  000022019090220190808ｺ2113名古屋ベース　　　　　　105093308133ﾀ52934993973532578EPD-37                             ZCO-EPD37                               圧着用中継端子台　　　　　　　　　　　　　　　　　　　　　　　　　　　　　　　　00000000088500000000010000000000000000001         2019080801            　　　　　　　　　　　　　　　　　　　　　　　　　　　　　　0000000000            　　　　　　　　　　　　　　　　　　　　　　　　　　　　　　00000000100
2019092719000300009V0000111980013-01            00001RAFK2P  000012019090520190808ｺ2113九州ベース　　　　　　　105093308133ﾀ52934993973579177SMC-4DL-PE                         ZCO-SMC4DLPE                            モーションコントロールボード　　　　　　　　　　　　　　　　　　　　　　　　　　00000000432750000000010000000000000000001         2019080801            　　　　　　　　　　　　　　　　　　　　　　　　　　　　　　0000000000            　　　　　　　　　　　　　　　　　　　　　　　　　　　　　　00000000100
2019092719000300010V0000111980013-02            00002RAFK2P  000022019090520190808ｺ2113九州ベース　　　　　　　105093308133ﾀ52934993973574639PCB100PS-5                         ZCO-PCB100PS5                           両端１００ピンコネクタ付シールドケーブル　5m　　　　　　　　　　　　　　　　　　00000000186000000000010000000000000000001         2019080801            　　　　　　　　　　　　　　　　　　　　　　　　　　　　　　0000000000            　　　　　　　　　　　　　　　　　　　　　　　　　　　　　　00000000100
2019092719000300011V0000111980013-03            00003RAFK2P  000032019090520190808ｺ2113九州ベース　　　　　　　105093308133ﾀ52934993973574578EPD-100A                           ZCO-EPD100A                             圧着用中継端子台（Ｍ３ネジ、１００点）　　　　　　　　　　　　　　　　　　　　　00000000177000000000010000000000000000001         2019080801            　　　　　　　　　　　　　　　　　　　　　　　　　　　　　　0000000000            　　　　　　　　　　　　　　　　　　　　　　　　　　　　　　00000000100
2019092719000300012V0000111980082-01            00001RAFK2T  000012019090520190808ｺ2113北陸ベース　　　　　　　105093308133ﾀ52934993973532554EPD-96                             ZCO-EPD96                               圧着用中継端子台（Ｍ３ネジ、９６点）　　　　　　　　　　　　　　　　　　　　　　00000000132750000000010000000000000000001         2019080801            　　　　　　　　　　　　　　　　　　　　　　　　　　　　　　0000000000            　　　　　　　　　　　　　　　　　　　　　　　　　　　　　　00000000100
2019092719000300013V0000111980082-02            00002RAFK2T  000022019090520190808ｺ2113北陸ベース　　　　　　　105093308133ﾀ52934993973568065PCB96PS-1.5P                       ZCO-PCB96PS15P                          両端９６ピンコネクタ付シールドケーブル　　　　　　　　　　　　　　　　　　　　　00000000106500000000010000000000000000001         2019080801            　　　　　　　　　　　　　　　　　　　　　　　　　　　　　　0000000000            　　　　　　　　　　　　　　　　　　　　　　　　　　　　　　00000000100
2019092719000300014V0000111980082-03            00003RAFK2T  000032019090520190808ｺ2113北陸ベース　　　　　　　105093308133ﾀ52934993973559544PO-64L(PCI)H                       ZCO-PO64LPCIH                           絶縁型デジタル出力ボード　　　　　　　　　　　　　　　　　　　　　　　　　　　　00000000309750000000010000000000000000001         2019080801            　　　　　　　　　　　　　　　　　　　　　　　　　　　　　　0000000000            　　　　　　　　　　　　　　　　　　　　　　　　　　　　　　00000000100
2019092719000300015V0000111980103-01            00001RAFK2N  000012019090520190808ｺ2113東京ベース　　　　　　　105093308133ﾀ52934993973578873DO-16TY-USB                        ZCO-DO16TYUSB                           非絶縁型デジタル出力ターミナル　　　　　　　　　　　　　　　　　　　　　　　　　00000000167760000000100000000000000000001         2019080801            　　　　　　　　　　　　　　　　　　　　　　　　　　　　　　0000000000            　　　　　　　　　　　　　　　　　　　　　　　　　　　　　　00000001000
2019092719000300016V0000111980103-02            00002RAFK2N  000022019090520190808ｺ2113東京ベース　　　　　　　105093308133ﾀ52934993973578873DO-16TY-USB                        ZCO-DO16TYUSB                           非絶縁型デジタル出力ターミナル　　　　　　　　　　　　　　　　　　　　　　　　　00000000167760000000710000000000000000001         2019080801            　　　　　　　　　　　　　　　　　　　　　　　　　　　　　　0000000000            　　　　　　　　　　　　　　　　　　　　　　　　　　　　　　00000007100
2019/09/27 0000016
2019093019000300001V0000111956732-01            00001RAFK2Q  000012019083020190808ｺ2113立川ベース　　　　　　　105093308133ﾀ52934993973599656DIO-1616B-LPE                      ZCO-DIO1616BLPE                         Low Profile対応絶縁型デジタル入出力ボード　　　　　　　　　　　　　　　　　　　 00000000285000000000030000000000000000001         2019080801            　　　　　　　　　　　　　　　　　　　　　　　　　　　　　　0000000000            　　　　　　　　　　　　　　　　　　　　　　　　　　　　　　00000000300
2019093019000300002V0000111962467-01            00001RAFK2M  000012019090220190808ｺ2113立川ベース　　　　　　　105093308133ﾀ52934993973578415COM-4C-PE                          ZCO-COM4CPE                             ＲＳ−２３２Ｃ通信ボード　４ｃｈ　ＰＣＩ　Ｅｘｐｒ　　　　　　　　　　　　　　　00000000309750000000020000000000000000001         2019080801            　　　　　　　　　　　　　　　　　　　　　　　　　　　　　　0000000000            　　　　　　　　　　　　　　　　　　　　　　　　　　　　　　00000000200
2019093019000300003V0000111962467-02            00002RAFK2M  000022019090220190808ｺ2113立川ベース　　　　　　　105093308133ﾀ52934993973578415COM-4C-PE                          ZCO-COM4CPE                             ＲＳ−２３２Ｃ通信ボード　４ｃｈ　ＰＣＩ　Ｅｘｐｒ　　　　　　　　　　　　　　　00000000309750000000010000000000000000001         2019080801            　　　　　　　　　　　　　　　　　　　　　　　　　　　　　　0000000000            　　　　　　　　　　　　　　　　　　　　　　　　　　　　　　00000000100
2019093019000300004V0000111962467-03            00003RAFK2M  000032019090220190808ｺ2113立川ベース　　　　　　　105093308133ﾀ52934993973533636PCE37/9PS                          ZCO-PCE379PS                            ＣＯＭ−４ｃｈ（３７ピン）用分配ケーブル　　　　　　　　　　　　　　　　　　　　00000000074900000000020000000000000000001         2019080801            　　　　　　　　　　　　　　　　　　　　　　　　　　　　　　0000000000            　　　　　　　　　　　　　　　　　　　　　　　　　　　　　　00000000200
2019093019000300005V0000111962467-04            00004RAFK2M  000042019090220190808ｺ2113立川ベース　　　　　　　105093308133ﾀ52934993973533636PCE37/9PS                          ZCO-PCE379PS                            ＣＯＭ−４ｃｈ（３７ピン）用分配ケーブル　　　　　　　　　　　　　　　　　　　　00000000074900000000010000000000000000001         2019080801            　　　　　　　　　　　　　　　　　　　　　　　　　　　　　　0000000000            　　　　　　　　　　　　　　　　　　　　　　　　　　　　　　00000000100
2019093019000300006V0000111963010-01            00001RAFK2R  000012019090220190808ｺ2113東京ベース　　　　　　　105093308133ﾀ52934993973599281AI-1608GY-USB                      ZCO-AI1608GYUSB                         高精度アナログ入出力ターミナル　　　　　　　　　　　　　　　　　　　　　　　　　00000000372000000000010000000000000000001         2019080801            　　　　　　　　　　　　　　　　　　　　　　　　　　　　　　0000000000            　　　　　　　　　　　　　　　　　　　　　　　　　　　　　　00000000100
2019093019000300007V0000311963247-01            00001RAFK2S  000012019090220190808ｺ2113名古屋ベース　　　　　　105093308133ﾀ52934993973532578EPD-37                             ZCO-DIO1616RYXUSB                       圧着用中継端子台　　　　　　　　　　　　　　　　　　　　　　　　　　　　　　　　00000000088500000000010000000000000000001         2019080801            　　　　　　　　　　　　　　　　　　　　　　　　　　　　　　0000000000            　　　　　　　　　　　　　　　　　　　　　　　　　　　　　　00000000100
2019093019000300008V0000111963247-02            00002RAFK2S  000022019090220190808ｺ2113名古屋ベース　　　　　　105093308133ﾀ52934993973532578EPD-37                             ZCO-EPD37                               圧着用中継端子台　　　　　　　　　　　　　　　　　　　　　　　　　　　　　　　　00000000088500000000010000000000000000001         2019080801            　　　　　　　　　　　　　　　　　　　　　　　　　　　　　　0000000000            　　　　　　　　　　　　　　　　　　　　　　　　　　　　　　00000000100
2019093019000300009V0000111980013-01            00001RAFK2P  000012019090520190808ｺ2113九州ベース　　　　　　　105093308133ﾀ52934993973579177SMC-4DL-PE                         ZCO-SMC4DLPE                            モーションコントロールボード　　　　　　　　　　　　　　　　　　　　　　　　　　00000000432750000000010000000000000000001         2019080801            　　　　　　　　　　　　　　　　　　　　　　　　　　　　　　0000000000            　　　　　　　　　　　　　　　　　　　　　　　　　　　　　　00000000100
2019093019000300010V0000111980013-02            00002RAFK2P  000022019090520190808ｺ2113九州ベース　　　　　　　105093308133ﾀ52934993973574639PCB100PS-5                         ZCO-PCB100PS5                           両端１００ピンコネクタ付シールドケーブル　5m　　　　　　　　　　　　　　　　　　00000000186000000000010000000000000000001         2019080801            　　　　　　　　　　　　　　　　　　　　　　　　　　　　　　0000000000            　　　　　　　　　　　　　　　　　　　　　　　　　　　　　　00000000100
2019093019000300011V0000111980013-03            00003RAFK2P  000032019090520190808ｺ2113九州ベース　　　　　　　105093308133ﾀ52934993973574578EPD-100A                           ZCO-EPD100A                             圧着用中継端子台（Ｍ３ネジ、１００点）　　　　　　　　　　　　　　　　　　　　　00000000177000000000010000000000000000001         2019080801            　　　　　　　　　　　　　　　　　　　　　　　　　　　　　　0000000000            　　　　　　　　　　　　　　　　　　　　　　　　　　　　　　00000000100
2019093019000300012V0000111980082-01            00001RAFK2T  000012019090520190808ｺ2113北陸ベース　　　　　　　105093308133ﾀ52934993973532554EPD-96                             ZCO-EPD96                               圧着用中継端子台（Ｍ３ネジ、９６点）　　　　　　　　　　　　　　　　　　　　　　00000000132750000000010000000000000000001         2019080801            　　　　　　　　　　　　　　　　　　　　　　　　　　　　　　0000000000            　　　　　　　　　　　　　　　　　　　　　　　　　　　　　　00000000100
2019093019000300013V0000111980082-02            00002RAFK2T  000022019090520190808ｺ2113北陸ベース　　　　　　　105093308133ﾀ52934993973568065PCB96PS-1.5P                       ZCO-PCB96PS15P                          両端９６ピンコネクタ付シールドケーブル　　　　　　　　　　　　　　　　　　　　　00000000106500000000010000000000000000001         2019080801            　　　　　　　　　　　　　　　　　　　　　　　　　　　　　　0000000000            　　　　　　　　　　　　　　　　　　　　　　　　　　　　　　00000000100
2019093019000300014V0000111980082-03            00003RAFK2T  000032019090520190808ｺ2113北陸ベース　　　　　　　105093308133ﾀ52934993973559544PO-64L(PCI)H                       ZCO-PO64LPCIH                           絶縁型デジタル出力ボード　　　　　　　　　　　　　　　　　　　　　　　　　　　　00000000309750000000010000000000000000001         2019080801            　　　　　　　　　　　　　　　　　　　　　　　　　　　　　　0000000000            　　　　　　　　　　　　　　　　　　　　　　　　　　　　　　00000000100
2019093019000300015V0000111980103-01            00001RAFK2N  000012019090520190808ｺ2113東京ベース　　　　　　　105093308133ﾀ52934993973578873DO-16TY-USB                        ZCO-DO16TYUSB                           非絶縁型デジタル出力ターミナル　　　　　　　　　　　　　　　　　　　　　　　　　00000000167760000000100000000000000000001         2019080801            　　　　　　　　　　　　　　　　　　　　　　　　　　　　　　0000000000            　　　　　　　　　　　　　　　　　　　　　　　　　　　　　　00000001000
2019093019000300016V0000111980103-02            00002RAFK2N  000022019090520190808ｺ2113東京ベース　　　　　　　105093308133ﾀ52934993973578873DO-16TY-USB                        ZCO-DO16TYUSB                           非絶縁型デジタル出力ターミナル　　　　　　　　　　　　　　　　　　　　　　　　　00000000167760000000710000000000000000001         2019080801            　　　　　　　　　　　　　　　　　　　　　　　　　　　　　　0000000000            　　　　　　　　　　　　　　　　　　　　　　　　　　　　　　00000007100
2019/09/30 0000016
2019100119000200001V0000111956732-01            00001RAFK2Q  000012019083020190808ｺ2113立川ベース　　　　　　　105093308133ﾀ52934993973599656DIO-1616B-LPE                      ZCO-DIO1616BLPE                         Low Profile対応絶縁型デジタル入出力ボード　　　　　　　　　　　　　　　　　　　 00000000285000000000030000000000000000001         2019080801            　　　　　　　　　　　　　　　　　　　　　　　　　　　　　　0000000000            　　　　　　　　　　　　　　　　　　　　　　　　　　　　　　00000000300
2019100119000200002V0000111962467-01            00001RAFK2M  000012019090220190808ｺ2113立川ベース　　　　　　　105093308133ﾀ52934993973578415COM-4C-PE                          ZCO-COM4CPE                             ＲＳ−２３２Ｃ通信ボード　４ｃｈ　ＰＣＩ　Ｅｘｐｒ　　　　　　　　　　　　　　　00000000309750000000020000000000000000001         2019080801            　　　　　　　　　　　　　　　　　　　　　　　　　　　　　　0000000000            　　　　　　　　　　　　　　　　　　　　　　　　　　　　　　00000000200
2019100119000200003V0000111962467-02            00002RAFK2M  000022019090220190808ｺ2113立川ベース　　　　　　　105093308133ﾀ52934993973578415COM-4C-PE                          ZCO-COM4CPE                             ＲＳ−２３２Ｃ通信ボード　４ｃｈ　ＰＣＩ　Ｅｘｐｒ　　　　　　　　　　　　　　　00000000309750000000010000000000000000001         2019080801            　　　　　　　　　　　　　　　　　　　　　　　　　　　　　　0000000000            　　　　　　　　　　　　　　　　　　　　　　　　　　　　　　00000000100
2019100119000200004V0000111962467-03            00003RAFK2M  000032019090220190808ｺ2113立川ベース　　　　　　　105093308133ﾀ52934993973533636PCE37/9PS                          ZCO-PCE379PS                            ＣＯＭ−４ｃｈ（３７ピン）用分配ケーブル　　　　　　　　　　　　　　　　　　　　00000000074900000000020000000000000000001         2019080801            　　　　　　　　　　　　　　　　　　　　　　　　　　　　　　0000000000            　　　　　　　　　　　　　　　　　　　　　　　　　　　　　　00000000200
2019100119000200005V0000111962467-04            00004RAFK2M  000042019090220190808ｺ2113立川ベース　　　　　　　105093308133ﾀ52934993973533636PCE37/9PS                          ZCO-PCE379PS                            ＣＯＭ−４ｃｈ（３７ピン）用分配ケーブル　　　　　　　　　　　　　　　　　　　　00000000074900000000010000000000000000001         2019080801            　　　　　　　　　　　　　　　　　　　　　　　　　　　　　　0000000000            　　　　　　　　　　　　　　　　　　　　　　　　　　　　　　00000000100
2019100119000200006V0000111963010-01            00001RAFK2R  000012019090220190808ｺ2113東京ベース　　　　　　　105093308133ﾀ52934993973599281AI-1608GY-USB                      ZCO-AI1608GYUSB                         高精度アナログ入出力ターミナル　　　　　　　　　　　　　　　　　　　　　　　　　00000000372000000000010000000000000000001         2019080801            　　　　　　　　　　　　　　　　　　　　　　　　　　　　　　0000000000            　　　　　　　　　　　　　　　　　　　　　　　　　　　　　　00000000100
2019100119000200007V0000311963247-01            00001RAFK2S  000012019090220190808ｺ2113名古屋ベース　　　　　　105093308133ﾀ52934993973532578EPD-37                             ZCO-DIO1616RYXUSB                       圧着用中継端子台　　　　　　　　　　　　　　　　　　　　　　　　　　　　　　　　00000000088500000000010000000000000000001         2019080801            　　　　　　　　　　　　　　　　　　　　　　　　　　　　　　0000000000            　　　　　　　　　　　　　　　　　　　　　　　　　　　　　　00000000100
2019100119000200008V0000111963247-02            00002RAFK2S  000022019090220190808ｺ2113名古屋ベース　　　　　　105093308133ﾀ52934993973532578EPD-37                             ZCO-EPD37                               圧着用中継端子台　　　　　　　　　　　　　　　　　　　　　　　　　　　　　　　　00000000088500000000010000000000000000001         2019080801            　　　　　　　　　　　　　　　　　　　　　　　　　　　　　　0000000000            　　　　　　　　　　　　　　　　　　　　　　　　　　　　　　00000000100
2019100119000200009V0000111980013-01            00001RAFK2P  000012019090520190808ｺ2113九州ベース　　　　　　　105093308133ﾀ52934993973579177SMC-4DL-PE                         ZCO-SMC4DLPE                            モーションコントロールボード　　　　　　　　　　　　　　　　　　　　　　　　　　00000000432750000000010000000000000000001         2019080801            　　　　　　　　　　　　　　　　　　　　　　　　　　　　　　0000000000            　　　　　　　　　　　　　　　　　　　　　　　　　　　　　　00000000100
2019100119000200010V0000111980013-02            00002RAFK2P  000022019090520190808ｺ2113九州ベース　　　　　　　105093308133ﾀ52934993973574639PCB100PS-5                         ZCO-PCB100PS5                           両端１００ピンコネクタ付シールドケーブル　5m　　　　　　　　　　　　　　　　　　00000000186000000000010000000000000000001         2019080801            　　　　　　　　　　　　　　　　　　　　　　　　　　　　　　0000000000            　　　　　　　　　　　　　　　　　　　　　　　　　　　　　　00000000100
2019100119000200011V0000111980013-03            00003RAFK2P  000032019090520190808ｺ2113九州ベース　　　　　　　105093308133ﾀ52934993973574578EPD-100A                           ZCO-EPD100A                             圧着用中継端子台（Ｍ３ネジ、１００点）　　　　　　　　　　　　　　　　　　　　　00000000177000000000010000000000000000001         2019080801            　　　　　　　　　　　　　　　　　　　　　　　　　　　　　　0000000000            　　　　　　　　　　　　　　　　　　　　　　　　　　　　　　00000000100
2019100119000200012V0000111980082-01            00001RAFK2T  000012019090520190808ｺ2113北陸ベース　　　　　　　105093308133ﾀ52934993973532554EPD-96                             ZCO-EPD96                               圧着用中継端子台（Ｍ３ネジ、９６点）　　　　　　　　　　　　　　　　　　　　　　00000000132750000000010000000000000000001         2019080801            　　　　　　　　　　　　　　　　　　　　　　　　　　　　　　0000000000            　　　　　　　　　　　　　　　　　　　　　　　　　　　　　　00000000100
2019100119000200013V0000111980082-02            00002RAFK2T  000022019090520190808ｺ2113北陸ベース　　　　　　　105093308133ﾀ52934993973568065PCB96PS-1.5P                       ZCO-PCB96PS15P                          両端９６ピンコネクタ付シールドケーブル　　　　　　　　　　　　　　　　　　　　　00000000106500000000010000000000000000001         2019080801            　　　　　　　　　　　　　　　　　　　　　　　　　　　　　　0000000000            　　　　　　　　　　　　　　　　　　　　　　　　　　　　　　00000000100
2019100119000200014V0000111980082-03            00003RAFK2T  000032019090520190808ｺ2113北陸ベース　　　　　　　105093308133ﾀ52934993973559544PO-64L(PCI)H                       ZCO-PO64LPCIH                           絶縁型デジタル出力ボード　　　　　　　　　　　　　　　　　　　　　　　　　　　　00000000309750000000010000000000000000001         2019080801            　　　　　　　　　　　　　　　　　　　　　　　　　　　　　　0000000000            　　　　　　　　　　　　　　　　　　　　　　　　　　　　　　00000000100
2019100119000200015V0000111980103-01            00001RAFK2N  000012019090520190808ｺ2113東京ベース　　　　　　　105093308133ﾀ52934993973578873DO-16TY-USB                        ZCO-DO16TYUSB                           非絶縁型デジタル出力ターミナル　　　　　　　　　　　　　　　　　　　　　　　　　00000000167760000000100000000000000000001         2019080801            　　　　　　　　　　　　　　　　　　　　　　　　　　　　　　0000000000            　　　　　　　　　　　　　　　　　　　　　　　　　　　　　　00000001000
2019100119000200016V0000111980103-02            00002RAFK2N  000022019090520190808ｺ2113東京ベース　　　　　　　105093308133ﾀ52934993973578873DO-16TY-USB                        ZCO-DO16TYUSB                           非絶縁型デジタル出力ターミナル　　　　　　　　　　　　　　　　　　　　　　　　　00000000167760000000710000000000000000001         2019080801            　　　　　　　　　　　　　　　　　　　　　　　　　　　　　　0000000000            　　　　　　　　　　　　　　　　　　　　　　　　　　　　　　00000007100
2019/10/01 0000016
2019100219000300001V0000111956732-01            00001RAFK2Q  000012019083020190808ｺ2113立川ベース　　　　　　　105093308133ﾀ52934993973599656DIO-1616B-LPE                      ZCO-DIO1616BLPE                         Low Profile対応絶縁型デジタル入出力ボード　　　　　　　　　　　　　　　　　　　 00000000285000000000030000000000000000001         2019080801            　　　　　　　　　　　　　　　　　　　　　　　　　　　　　　0000000000            　　　　　　　　　　　　　　　　　　　　　　　　　　　　　　00000000300
2019100219000300002V0000111962467-01            00001RAFK2M  000012019090220190808ｺ2113立川ベース　　　　　　　105093308133ﾀ52934993973578415COM-4C-PE                          ZCO-COM4CPE                             ＲＳ−２３２Ｃ通信ボード　４ｃｈ　ＰＣＩ　Ｅｘｐｒ　　　　　　　　　　　　　　　00000000309750000000020000000000000000001         2019080801            　　　　　　　　　　　　　　　　　　　　　　　　　　　　　　0000000000            　　　　　　　　　　　　　　　　　　　　　　　　　　　　　　00000000200
2019100219000300003V0000111962467-02            00002RAFK2M  000022019090220190808ｺ2113立川ベース　　　　　　　105093308133ﾀ52934993973578415COM-4C-PE                          ZCO-COM4CPE                             ＲＳ−２３２Ｃ通信ボード　４ｃｈ　ＰＣＩ　Ｅｘｐｒ　　　　　　　　　　　　　　　00000000309750000000010000000000000000001         2019080801            　　　　　　　　　　　　　　　　　　　　　　　　　　　　　　0000000000            　　　　　　　　　　　　　　　　　　　　　　　　　　　　　　00000000100
2019100219000300004V0000111962467-03            00003RAFK2M  000032019090220190808ｺ2113立川ベース　　　　　　　105093308133ﾀ52934993973533636PCE37/9PS                          ZCO-PCE379PS                            ＣＯＭ−４ｃｈ（３７ピン）用分配ケーブル　　　　　　　　　　　　　　　　　　　　00000000074900000000020000000000000000001         2019080801            　　　　　　　　　　　　　　　　　　　　　　　　　　　　　　0000000000            　　　　　　　　　　　　　　　　　　　　　　　　　　　　　　00000000200
2019100219000300005V0000111962467-04            00004RAFK2M  000042019090220190808ｺ2113立川ベース　　　　　　　105093308133ﾀ52934993973533636PCE37/9PS                          ZCO-PCE379PS                            ＣＯＭ−４ｃｈ（３７ピン）用分配ケーブル　　　　　　　　　　　　　　　　　　　　00000000074900000000010000000000000000001         2019080801            　　　　　　　　　　　　　　　　　　　　　　　　　　　　　　0000000000            　　　　　　　　　　　　　　　　　　　　　　　　　　　　　　00000000100
2019100219000300006V0000111963010-01            00001RAFK2R  000012019090220190808ｺ2113東京ベース　　　　　　　105093308133ﾀ52934993973599281AI-1608GY-USB                      ZCO-AI1608GYUSB                         高精度アナログ入出力ターミナル　　　　　　　　　　　　　　　　　　　　　　　　　00000000372000000000010000000000000000001         2019080801            　　　　　　　　　　　　　　　　　　　　　　　　　　　　　　0000000000            　　　　　　　　　　　　　　　　　　　　　　　　　　　　　　00000000100
2019100219000300007V0000311963247-01            00001RAFK2S  000012019090220190808ｺ2113名古屋ベース　　　　　　105093308133ﾀ52934993973532578EPD-37                             ZCO-DIO1616RYXUSB                       圧着用中継端子台　　　　　　　　　　　　　　　　　　　　　　　　　　　　　　　　00000000088500000000010000000000000000001         2019080801            　　　　　　　　　　　　　　　　　　　　　　　　　　　　　　0000000000            　　　　　　　　　　　　　　　　　　　　　　　　　　　　　　00000000100
2019100219000300008V0000111963247-02            00002RAFK2S  000022019090220190808ｺ2113名古屋ベース　　　　　　105093308133ﾀ52934993973532578EPD-37                             ZCO-EPD37                               圧着用中継端子台　　　　　　　　　　　　　　　　　　　　　　　　　　　　　　　　00000000088500000000010000000000000000001         2019080801            　　　　　　　　　　　　　　　　　　　　　　　　　　　　　　0000000000            　　　　　　　　　　　　　　　　　　　　　　　　　　　　　　00000000100
2019100219000300009V0000111980013-01            00001RAFK2P  000012019090520190808ｺ2113九州ベース　　　　　　　105093308133ﾀ52934993973579177SMC-4DL-PE                         ZCO-SMC4DLPE                            モーションコントロールボード　　　　　　　　　　　　　　　　　　　　　　　　　　00000000432750000000010000000000000000001         2019080801            　　　　　　　　　　　　　　　　　　　　　　　　　　　　　　0000000000            　　　　　　　　　　　　　　　　　　　　　　　　　　　　　　00000000100
2019100219000300010V0000111980013-02            00002RAFK2P  000022019090520190808ｺ2113九州ベース　　　　　　　105093308133ﾀ52934993973574639PCB100PS-5                         ZCO-PCB100PS5                           両端１００ピンコネクタ付シールドケーブル　5m　　　　　　　　　　　　　　　　　　00000000186000000000010000000000000000001         2019080801            　　　　　　　　　　　　　　　　　　　　　　　　　　　　　　0000000000            　　　　　　　　　　　　　　　　　　　　　　　　　　　　　　00000000100
2019100219000300011V0000111980013-03            00003RAFK2P  000032019090520190808ｺ2113九州ベース　　　　　　　105093308133ﾀ52934993973574578EPD-100A                           ZCO-EPD100A                             圧着用中継端子台（Ｍ３ネジ、１００点）　　　　　　　　　　　　　　　　　　　　　00000000177000000000010000000000000000001         2019080801            　　　　　　　　　　　　　　　　　　　　　　　　　　　　　　0000000000            　　　　　　　　　　　　　　　　　　　　　　　　　　　　　　00000000100
2019100219000300012V0000111980082-01            00001RAFK2T  000012019090520190808ｺ2113北陸ベース　　　　　　　105093308133ﾀ52934993973532554EPD-96                             ZCO-EPD96                               圧着用中継端子台（Ｍ３ネジ、９６点）　　　　　　　　　　　　　　　　　　　　　　00000000132750000000010000000000000000001         2019080801            　　　　　　　　　　　　　　　　　　　　　　　　　　　　　　0000000000            　　　　　　　　　　　　　　　　　　　　　　　　　　　　　　00000000100
2019100219000300013V0000111980082-02            00002RAFK2T  000022019090520190808ｺ2113北陸ベース　　　　　　　105093308133ﾀ52934993973568065PCB96PS-1.5P                       ZCO-PCB96PS15P                          両端９６ピンコネクタ付シールドケーブル　　　　　　　　　　　　　　　　　　　　　00000000106500000000010000000000000000001         2019080801            　　　　　　　　　　　　　　　　　　　　　　　　　　　　　　0000000000            　　　　　　　　　　　　　　　　　　　　　　　　　　　　　　00000000100
2019100219000300014V0000111980082-03            00003RAFK2T  000032019090520190808ｺ2113北陸ベース　　　　　　　105093308133ﾀ52934993973559544PO-64L(PCI)H                       ZCO-PO64LPCIH                           絶縁型デジタル出力ボード　　　　　　　　　　　　　　　　　　　　　　　　　　　　00000000309750000000010000000000000000001         2019080801            　　　　　　　　　　　　　　　　　　　　　　　　　　　　　　0000000000            　　　　　　　　　　　　　　　　　　　　　　　　　　　　　　00000000100
2019100219000300015V0000111980103-01            00001RAFK2N  000012019090520190808ｺ2113東京ベース　　　　　　　105093308133ﾀ52934993973578873DO-16TY-USB                        ZCO-DO16TYUSB                           非絶縁型デジタル出力ターミナル　　　　　　　　　　　　　　　　　　　　　　　　　00000000167760000000100000000000000000001         2019080801            　　　　　　　　　　　　　　　　　　　　　　　　　　　　　　0000000000            　　　　　　　　　　　　　　　　　　　　　　　　　　　　　　00000001000
2019100219000300016V0000111980103-02            00002RAFK2N  000022019090520190808ｺ2113東京ベース　　　　　　　105093308133ﾀ52934993973578873DO-16TY-USB                        ZCO-DO16TYUSB                           非絶縁型デジタル出力ターミナル　　　　　　　　　　　　　　　　　　　　　　　　　00000000167760000000710000000000000000001         2019080801            　　　　　　　　　　　　　　　　　　　　　　　　　　　　　　0000000000            　　　　　　　　　　　　　　　　　　　　　　　　　　　　　　00000007100
2019/10/02 0000016
2019/10/03 0000000
2019/10/04 0000000
2019/10/07 0000000
2019100819000200001V0000111827756-01            00001RAFK2X  000012019072620190726ｺ2113東京ベース　　　　　　　105093308133ﾀ52934993973593340ESP-F5A                            ZCO-ESPF5A                              保証延長サービスパック 5年一括 ランクA　　　　　　　　　　　　　　　　　　　　　00000000060000000000010000000000000000001         2019072701            　　　　　　　　　　　　　　　　　　　　　　　　　　　　　　0000000000            　　　　　　　　　　　　　　　　　　　　　　　　　　　　　　00000000100
2019100819000200002V0000111828450-01            00001RAFK2Y  000012019072620190726ｺ2113立川ベース　　　　　　　105093308133ﾀ52934993973576695DIO-1616B-PE                       ZCO-DIO1616BPE                          絶縁型デジタル入出力ボード　ＰＣＩ　Ｅｘｐｒｅｓｓ　　　　　　　　　　　　　　　00000000291750000000020000000000000000001         2019072701            　　　　　　　　　　　　　　　　　　　　　　　　　　　　　　0000000000            　　　　　　　　　　　　　　　　　　　　　　　　　　　　　　00000000200
2019100819000200003V0000111962033-01            00001RAFK2W  000012019090220190727ｺ2113東京ベース　　　　　　　105093308133ﾀ52934993973599274AIO-160802GY-USB                   ZCO-AIO160802GYUSB                      高精度アナログ入出力ターミナル　　　　　　　　　　　　　　　　　　　　　　　　　00000000555000000000040000000000000000001         2019072701            　　　　　　　　　　　　　　　　　　　　　　　　　　　　　　0000000000            　　　　　　　　　　　　　　　　　　　　　　　　　　　　　　00000000400
2019100819000200004V0000111980083-01            00001RAFK30  000012019090520190705ｺ2113浜松ベース　　　　　　　105093308133ﾀ52934993973599656DIO-1616B-LPE                      ZCO-DIO1616BLPE                         Low Profile対応絶縁型デジタル入出力ボード　　　　　　　　　　　　　　　　　　　 00000000285000000000060000000000000000001         2019072701            　　　　　　　　　　　　　　　　　　　　　　　　　　　　　　0000000000            　　　　　　　　　　　　　　　　　　　　　　　　　　　　　　00000000600
2019100819000200005V0000111980083-02            00002RAFK30  000022019090520190705ｺ2113浜松ベース　　　　　　　105093308133ﾀ52934993973564005EPD-50A                            ZCO-EPD50A                              圧着用中継端子台（Ｍ３ネジ、５０点）　　　　　　　　　　　　　　　　　　　　　　00000000106500000000060000000000000000001         2019072701            　　　　　　　　　　　　　　　　　　　　　　　　　　　　　　0000000000            　　　　　　　　　　　　　　　　　　　　　　　　　　　　　　00000000600
2019100819000200006V0000111980083-03            00003RAFK30  000032019090520190705ｺ2113浜松ベース　　　　　　　105093308133ﾀ52934993973563916PCB50PS-1.5P                       ZCO-PCB50PS1.5P                         両端５０ピンＤ−ＳＵＢコネクタシ−ルドケーブル　　　　　　　　　　　　　　　　　00000000055500000000060000000000000000001         2019072701            　　　　　　　　　　　　　　　　　　　　　　　　　　　　　　0000000000            　　　　　　　　　　　　　　　　　　　　　　　　　　　　　　00000000600
2019100819000200007V00001DZ256663-01            00001RAFK2Z  000012019090520190705ｺ2113仙台ベース　　　　　　　105093308133ﾀ52934993973579177SMC-4DL-PE                         ZCO-SMC4DLPE                            モーションコントロールボード　　　　　　　　　　　　　　　　　　　　　　　　　　0000000043275000000004000000000000000000104423-0092019072701            　　　　　　　　　　　　　　　　　　　　　　　　　　　　　　0000000000            　　　　　　　　　　　　　　　　　　　　　　　　　　　　　　00000000400
2019100819000200008V00001DZ256663-02            00002RAFK2Z  000022019090520190705ｺ2113仙台ベース　　　　　　　105093308133ﾀ52934993973573564DIO-3232L-PE                       ZCO-DIO3232LPE                          絶縁型デジタル入出力ボード　ＰＣＩ　Ｅｘｐｒｅｓｓ　　　　　　　　　　　　　　　0000000032700000000004000000000000000000104423-0092019072701            　　　　　　　　　　　　　　　　　　　　　　　　　　　　　　0000000000            　　　　　　　　　　　　　　　　　　　　　　　　　　　　　　00000000400
2019/10/08 0000008
2019100919000300001V0000111827756-01            00001RAFK2X  000012019072620190726ｺ2113東京ベース　　　　　　　105093308133ﾀ52934993973593340ESP-F5A                            ZCO-ESPF5A                              保証延長サービスパック 5年一括 ランクA　　　　　　　　　　　　　　　　　　　　　00000000060000000000010000000000000000001         2019072701            　　　　　　　　　　　　　　　　　　　　　　　　　　　　　　0000000000            　　　　　　　　　　　　　　　　　　　　　　　　　　　　　　00000000100
2019100919000300002V0000111828450-01            00001RAFK2Y  000012019072620190726ｺ2113立川ベース　　　　　　　105093308133ﾀ52934993973576695DIO-1616B-PE                       ZCO-DIO1616BPE                          絶縁型デジタル入出力ボード　ＰＣＩ　Ｅｘｐｒｅｓｓ　　　　　　　　　　　　　　　00000000291750000000020000000000000000001         2019072701            　　　　　　　　　　　　　　　　　　　　　　　　　　　　　　0000000000            　　　　　　　　　　　　　　　　　　　　　　　　　　　　　　00000000200
2019100919000300003V0000111962033-01            00001RAFK2W  000012019090220190727ｺ2113東京ベース　　　　　　　105093308133ﾀ52934993973599274AIO-160802GY-USB                   ZCO-AIO160802GYUSB                      高精度アナログ入出力ターミナル　　　　　　　　　　　　　　　　　　　　　　　　　00000000555000000000040000000000000000001         2019072701            　　　　　　　　　　　　　　　　　　　　　　　　　　　　　　0000000000            　　　　　　　　　　　　　　　　　　　　　　　　　　　　　　00000000400
2019100919000300004V0000111980083-01            00001RAFK30  000012019090520190705ｺ2113浜松ベース　　　　　　　105093308133ﾀ52934993973599656DIO-1616B-LPE                      ZCO-DIO1616BLPE                         Low Profile対応絶縁型デジタル入出力ボード　　　　　　　　　　　　　　　　　　　 00000000285000000000060000000000000000001         2019072701            　　　　　　　　　　　　　　　　　　　　　　　　　　　　　　0000000000            　　　　　　　　　　　　　　　　　　　　　　　　　　　　　　00000000600
2019100919000300005V0000111980083-02            00002RAFK30  000022019090520190705ｺ2113浜松ベース　　　　　　　105093308133ﾀ52934993973564005EPD-50A                            ZCO-EPD50A                              圧着用中継端子台（Ｍ３ネジ、５０点）　　　　　　　　　　　　　　　　　　　　　　00000000106500000000060000000000000000001         2019072701            　　　　　　　　　　　　　　　　　　　　　　　　　　　　　　0000000000            　　　　　　　　　　　　　　　　　　　　　　　　　　　　　　00000000600
2019100919000300006V0000111980083-03            00003RAFK30  000032019090520190705ｺ2113浜松ベース　　　　　　　105093308133ﾀ52934993973563916PCB50PS-1.5P                       ZCO-PCB50PS1.5P                         両端５０ピンＤ−ＳＵＢコネクタシ−ルドケーブル　　　　　　　　　　　　　　　　　00000000055500000000060000000000000000001         2019072701            　　　　　　　　　　　　　　　　　　　　　　　　　　　　　　0000000000            　　　　　　　　　　　　　　　　　　　　　　　　　　　　　　00000000600
2019100919000300007V00001DZ256663-01            00001RAFK2Z  000012019090520190705ｺ2113仙台ベース　　　　　　　105093308133ﾀ52934993973579177SMC-4DL-PE                         ZCO-SMC4DLPE                            モーションコントロールボード　　　　　　　　　　　　　　　　　　　　　　　　　　0000000043275000000004000000000000000000104423-0092019072701            　　　　　　　　　　　　　　　　　　　　　　　　　　　　　　0000000000            　　　　　　　　　　　　　　　　　　　　　　　　　　　　　　00000000400
2019100919000300008V00001DZ256663-02            00002RAFK2Z  000022019090520190705ｺ2113仙台ベース　　　　　　　105093308133ﾀ52934993973573564DIO-3232L-PE                       ZCO-DIO3232LPE                          絶縁型デジタル入出力ボード　ＰＣＩ　Ｅｘｐｒｅｓｓ　　　　　　　　　　　　　　　0000000032700000000004000000000000000000104423-0092019072701            　　　　　　　　　　　　　　　　　　　　　　　　　　　　　　0000000000            　　　　　　　　　　　　　　　　　　　　　　　　　　　　　　00000000400
2019/10/09 0000008
2019101019000300001V0000111827756-01            00001RAFK2X  000012019072620190726ｺ2113東京ベース　　　　　　　105093308133ﾀ52934993973593340ESP-F5A                            ZCO-ESPF5A                              保証延長サービスパック 5年一括 ランクA　　　　　　　　　　　　　　　　　　　　　00000000060000000000010000000000000000001         2019072701            　　　　　　　　　　　　　　　　　　　　　　　　　　　　　　0000000000            　　　　　　　　　　　　　　　　　　　　　　　　　　　　　　00000000100
2019101019000300002V0000111828450-01            00001RAFK2Y  000012019072620190726ｺ2113立川ベース　　　　　　　105093308133ﾀ52934993973576695DIO-1616B-PE                       ZCO-DIO1616BPE                          絶縁型デジタル入出力ボード　ＰＣＩ　Ｅｘｐｒｅｓｓ　　　　　　　　　　　　　　　00000000291750000000020000000000000000001         2019072701            　　　　　　　　　　　　　　　　　　　　　　　　　　　　　　0000000000            　　　　　　　　　　　　　　　　　　　　　　　　　　　　　　00000000200
2019101019000300003V0000111962033-01            00001RAFK2W  000012019090220190727ｺ2113東京ベース　　　　　　　105093308133ﾀ52934993973599274AIO-160802GY-USB                   ZCO-AIO160802GYUSB                      高精度アナログ入出力ターミナル　　　　　　　　　　　　　　　　　　　　　　　　　00000000555000000000040000000000000000001         2019072701            　　　　　　　　　　　　　　　　　　　　　　　　　　　　　　0000000000            　　　　　　　　　　　　　　　　　　　　　　　　　　　　　　00000000400
2019101019000300004V0000111980083-01            00001RAFK30  000012019090520190705ｺ2113浜松ベース　　　　　　　105093308133ﾀ52934993973599656DIO-1616B-LPE                      ZCO-DIO1616BLPE                         Low Profile対応絶縁型デジタル入出力ボード　　　　　　　　　　　　　　　　　　　 00000000285000000000060000000000000000001         2019072701            　　　　　　　　　　　　　　　　　　　　　　　　　　　　　　0000000000            　　　　　　　　　　　　　　　　　　　　　　　　　　　　　　00000000600
2019101019000300005V0000111980083-02            00002RAFK30  000022019090520190705ｺ2113浜松ベース　　　　　　　105093308133ﾀ52934993973564005EPD-50A                            ZCO-EPD50A                              圧着用中継端子台（Ｍ３ネジ、５０点）　　　　　　　　　　　　　　　　　　　　　　00000000106500000000060000000000000000001         2019072701            　　　　　　　　　　　　　　　　　　　　　　　　　　　　　　0000000000            　　　　　　　　　　　　　　　　　　　　　　　　　　　　　　00000000600
2019101019000300006V0000111980083-03            00003RAFK30  000032019090520190705ｺ2113浜松ベース　　　　　　　105093308133ﾀ52934993973563916PCB50PS-1.5P                       ZCO-PCB50PS1.5P                         両端５０ピンＤ−ＳＵＢコネクタシ−ルドケーブル　　　　　　　　　　　　　　　　　00000000055500000000060000000000000000001         2019072701            　　　　　　　　　　　　　　　　　　　　　　　　　　　　　　0000000000            　　　　　　　　　　　　　　　　　　　　　　　　　　　　　　00000000600
2019101019000300007V00001DZ256663-01            00001RAFK2Z  000012019090520190705ｺ2113仙台ベース　　　　　　　105093308133ﾀ52934993973579177SMC-4DL-PE                         ZCO-SMC4DLPE                            モーションコントロールボード　　　　　　　　　　　　　　　　　　　　　　　　　　0000000043275000000004000000000000000000104423-0092019072701            　　　　　　　　　　　　　　　　　　　　　　　　　　　　　　0000000000            　　　　　　　　　　　　　　　　　　　　　　　　　　　　　　00000000400
2019101019000300008V00001DZ256663-02            00002RAFK2Z  000022019090520190705ｺ2113仙台ベース　　　　　　　105093308133ﾀ52934993973573564DIO-3232L-PE                       ZCO-DIO3232LPE                          絶縁型デジタル入出力ボード　ＰＣＩ　Ｅｘｐｒｅｓｓ　　　　　　　　　　　　　　　0000000032700000000004000000000000000000104423-0092019072701            　　　　　　　　　　　　　　　　　　　　　　　　　　　　　　0000000000            　　　　　　　　　　　　　　　　　　　　　　　　　　　　　　00000000400
2019/10/10 0000008
2019101119000300001V0000111827756-01            00001RAFK2X  000012019072620190726ｺ2113東京ベース　　　　　　　105093308133ﾀ52934993973593340ESP-F5A                            ZCO-ESPF5A                              保証延長サービスパック 5年一括 ランクA　　　　　　　　　　　　　　　　　　　　　00000000060000000000010000000000000000001         2019072701            　　　　　　　　　　　　　　　　　　　　　　　　　　　　　　0000000000            　　　　　　　　　　　　　　　　　　　　　　　　　　　　　　00000000100
2019101119000300002V0000111828450-01            00001RAFK2Y  000012019072620190726ｺ2113立川ベース　　　　　　　105093308133ﾀ52934993973576695DIO-1616B-PE                       ZCO-DIO1616BPE                          絶縁型デジタル入出力ボード　ＰＣＩ　Ｅｘｐｒｅｓｓ　　　　　　　　　　　　　　　00000000291750000000020000000000000000001         2019072701            　　　　　　　　　　　　　　　　　　　　　　　　　　　　　　0000000000            　　　　　　　　　　　　　　　　　　　　　　　　　　　　　　00000000200
2019101119000300003V0000111962033-01            00001RAFK2W  000012019090220190727ｺ2113東京ベース　　　　　　　105093308133ﾀ52934993973599274AIO-160802GY-USB                   ZCO-AIO160802GYUSB                      高精度アナログ入出力ターミナル　　　　　　　　　　　　　　　　　　　　　　　　　00000000555000000000040000000000000000001         2019072701            　　　　　　　　　　　　　　　　　　　　　　　　　　　　　　0000000000            　　　　　　　　　　　　　　　　　　　　　　　　　　　　　　00000000400
2019101119000300004V0000111980083-01            00001RAFK30  000012019090520190705ｺ2113浜松ベース　　　　　　　105093308133ﾀ52934993973599656DIO-1616B-LPE                      ZCO-DIO1616BLPE                         Low Profile対応絶縁型デジタル入出力ボード　　　　　　　　　　　　　　　　　　　 00000000285000000000060000000000000000001         2019072701            　　　　　　　　　　　　　　　　　　　　　　　　　　　　　　0000000000            　　　　　　　　　　　　　　　　　　　　　　　　　　　　　　00000000600
2019101119000300005V0000111980083-02            00002RAFK30  000022019090520190705ｺ2113浜松ベース　　　　　　　105093308133ﾀ52934993973564005EPD-50A                            ZCO-EPD50A                              圧着用中継端子台（Ｍ３ネジ、５０点）　　　　　　　　　　　　　　　　　　　　　　00000000106500000000060000000000000000001         2019072701            　　　　　　　　　　　　　　　　　　　　　　　　　　　　　　0000000000            　　　　　　　　　　　　　　　　　　　　　　　　　　　　　　00000000600
2019101119000300006V0000111980083-03            00003RAFK30  000032019090520190705ｺ2113浜松ベース　　　　　　　105093308133ﾀ52934993973563916PCB50PS-1.5P                       ZCO-PCB50PS1.5P                         両端５０ピンＤ−ＳＵＢコネクタシ−ルドケーブル　　　　　　　　　　　　　　　　　00000000055500000000060000000000000000001         2019072701            　　　　　　　　　　　　　　　　　　　　　　　　　　　　　　0000000000            　　　　　　　　　　　　　　　　　　　　　　　　　　　　　　00000000600
2019101119000300007V0000112126364-01            00001RAFK31  000012019101120190727ｺ2113京滋ベース　　　　　　　105093308133ﾀ52934993973573045COM-1C-LPE                         ZCO-COM1CLPE                            ＲＳ−２３２Ｃ通信ボード　ＰＣＩ　Ｅｘｐｒｅｓｓ　　　　　　　　　　　　　　　　00000000194250000000050000000000000000001         2019072701            　　　　　　　　　　　　　　　　　　　　　　　　　　　　　　0000000000            　　　　　　　　　　　　　　　　　　　　　　　　　　　　　　00000000500
2019101119000300008V00001DZ256663-01            00001RAFK2Z  000012019090520190705ｺ2113仙台ベース　　　　　　　105093308133ﾀ52934993973579177SMC-4DL-PE                         ZCO-SMC4DLPE                            モーションコントロールボード　　　　　　　　　　　　　　　　　　　　　　　　　　0000000043275000000004000000000000000000104423-0092019072701            　　　　　　　　　　　　　　　　　　　　　　　　　　　　　　0000000000            　　　　　　　　　　　　　　　　　　　　　　　　　　　　　　00000000400
2019101119000300009V00001DZ256663-02            00002RAFK2Z  000022019090520190705ｺ2113仙台ベース　　　　　　　105093308133ﾀ52934993973573564DIO-3232L-PE                       ZCO-DIO3232LPE                          絶縁型デジタル入出力ボード　ＰＣＩ　Ｅｘｐｒｅｓｓ　　　　　　　　　　　　　　　0000000032700000000004000000000000000000104423-0092019072701            　　　　　　　　　　　　　　　　　　　　　　　　　　　　　　0000000000            　　　　　　　　　　　　　　　　　　　　　　　　　　　　　　00000000400
2019/10/11 0000009
2019101516052900001V0000111827756-01            00001RAFK2X  000012019072620190726ｺ2113東京ベース　　　　　　　105093308133ﾀ52934993973593340ESP-F5A                            ZCO-ESPF5A                              保証延長サービスパック 5年一括 ランクA　　　　　　　　　　　　　　　　　　　　　00000000060000000000010000000000000000001         2019072701            　　　　　　　　　　　　　　　　　　　　　　　　　　　　　　0000000000            　　　　　　　　　　　　　　　　　　　　　　　　　　　　　　00000000100
2019101516052900002V0000111828450-01            00001RAFK2Y  000012019072620190726ｺ2113立川ベース　　　　　　　105093308133ﾀ52934993973576695DIO-1616B-PE                       ZCO-DIO1616BPE                          絶縁型デジタル入出力ボード　ＰＣＩ　Ｅｘｐｒｅｓｓ　　　　　　　　　　　　　　　00000000291750000000020000000000000000001         2019072701            　　　　　　　　　　　　　　　　　　　　　　　　　　　　　　0000000000            　　　　　　　　　　　　　　　　　　　　　　　　　　　　　　00000000200
2019101516052900003V0000111962033-01            00001RAFK2W  000012019090220190727ｺ2113東京ベース　　　　　　　105093308133ﾀ52934993973599274AIO-160802GY-USB                   ZCO-AIO160802GYUSB                      高精度アナログ入出力ターミナル　　　　　　　　　　　　　　　　　　　　　　　　　00000000555000000000040000000000000000001         2019072701            　　　　　　　　　　　　　　　　　　　　　　　　　　　　　　0000000000            　　　　　　　　　　　　　　　　　　　　　　　　　　　　　　00000000400
2019101516052900004V0000111972780-01            00001RAFK36  000012019090320190727ｺ2113立川ベース　　　　　　　105093308133ﾀ52934993973599649DIO-1616L-LPE                      ZCO-DIO1616LLPE                         Low Profile対応絶縁型デジタル入出力ボード　　　　　　　　　　　　　　　　　　　 00000000225000000000020000000000000000001         2019072701            　　　　　　　　　　　　　　　　　　　　　　　　　　　　　　0000000000            　　　　　　　　　　　　　　　　　　　　　　　　　　　　　　00000000200
2019101516052900005V0000111972780-02            00002RAFK35  000012019090320190727ｺ2113名古屋ベース　　　　　　105093308133ﾀ52934993973563916PCB50PS-1.5P                       ZCO-PCB50PS1.5P                         両端５０ピンＤ−ＳＵＢコネクタシ−ルドケーブル　　　　　　　　　　　　　　　　　00000000055500000000020000000000000000001         2019072701            　　　　　　　　　　　　　　　　　　　　　　　　　　　　　　0000000000            　　　　　　　　　　　　　　　　　　　　　　　　　　　　　　00000000200
2019101516052900006V0000111972780-03            00003RAFK35  000022019090320190727ｺ2113名古屋ベース　　　　　　105093308133ﾀ52934993973564005EPD-50A                            ZCO-EPD50A                              圧着用中継端子台（Ｍ３ネジ、５０点）　　　　　　　　　　　　　　　　　　　　　　00000000106500000000020000000000000000001         2019072701            　　　　　　　　　　　　　　　　　　　　　　　　　　　　　　0000000000            　　　　　　　　　　　　　　　　　　　　　　　　　　　　　　00000000200
2019101516052900007V0000111979989-01            00001RAFK32  000012019090520190727ｺ2113名古屋ベース　　　　　　105093308133ﾀ52934993973582801AIO-163202FX-USB                   ZCO-AIO163202FXUSB                      アナログ入出力ユニット 500KSPS 16ビット分解能　　　　　　　　　　　　　　　　　 00000001111500000000010000000000000000001         2019072701            　　　　　　　　　　　　　　　　　　　　　　　　　　　　　　0000000000            　　　　　　　　　　　　　　　　　　　　　　　　　　　　　　00000000100
2019101516052900008V0000111979989-02            00002RAFK32  000022019090520190727ｺ2113名古屋ベース　　　　　　105093308133ﾀ52934993973568065PCB96PS-1.5P                       ZCO-PCB96PS15P                          両端９６ピンコネクタ付シールドケーブル　　　　　　　　　　　　　　　　　　　　　00000000106500000000010000000000000000001         2019072701            　　　　　　　　　　　　　　　　　　　　　　　　　　　　　　0000000000            　　　　　　　　　　　　　　　　　　　　　　　　　　　　　　00000000100
2019101516052900009V0000111979989-03            00003RAFK32  000032019090520190727ｺ2113名古屋ベース　　　　　　105093308133ﾀ52934993973585536DTP-64A                            ZCO-DTP64A                              導線用中継端子台　　　　　　　　　　　　　　　　　　　　　　　　　　　　　　　　00000000181300000000010000000000000000001         2019072701            　　　　　　　　　　　　　　　　　　　　　　　　　　　　　　0000000000            　　　　　　　　　　　　　　　　　　　　　　　　　　　　　　00000000100
2019101516052900010V0000111979989-04            00004RAFK32  000042019090520190727ｺ2113名古屋ベース　　　　　　105093308133ﾀ52934993973586557RRY-16CX-USB                       ZCO-RRY16CXUSB                          USB対応　独立コモンリードリレー接点デジタル出力ユ　　　　　　　　　　　　　　　 00000000494250000000010000000000000000001         2019072701            　　　　　　　　　　　　　　　　　　　　　　　　　　　　　　0000000000            　　　　　　　　　　　　　　　　　　　　　　　　　　　　　　00000000100
2019101516052900011V0000111979989-05            00005RAFK32  000052019090520190727ｺ2113名古屋ベース　　　　　　105093308133ﾀ52934993973547145PCB37PS-1.5P                       ZCO-PCB37PS15P                          両端３７ピンＤ−ＳＵＢコネクタ付シ−ルドケーブル　　　　　　　　　　　　　　　　00000000053250000000010000000000000000001         2019072701            　　　　　　　　　　　　　　　　　　　　　　　　　　　　　　0000000000            　　　　　　　　　　　　　　　　　　　　　　　　　　　　　　00000000100
2019101516052900012V0000111980083-01            00001RAFK30  000012019090520190705ｺ2113浜松ベース　　　　　　　105093308133ﾀ52934993973599656DIO-1616B-LPE                      ZCO-DIO1616BLPE                         Low Profile対応絶縁型デジタル入出力ボード　　　　　　　　　　　　　　　　　　　 00000000285000000000060000000000000000001         2019072701            　　　　　　　　　　　　　　　　　　　　　　　　　　　　　　0000000000            　　　　　　　　　　　　　　　　　　　　　　　　　　　　　　00000000600
2019101516052900013V0000111980083-02            00002RAFK30  000022019090520190705ｺ2113浜松ベース　　　　　　　105093308133ﾀ52934993973564005EPD-50A                            ZCO-EPD50A                              圧着用中継端子台（Ｍ３ネジ、５０点）　　　　　　　　　　　　　　　　　　　　　　00000000106500000000060000000000000000001         2019072701            　　　　　　　　　　　　　　　　　　　　　　　　　　　　　　0000000000            　　　　　　　　　　　　　　　　　　　　　　　　　　　　　　00000000600
2019101516052900014V0000111980083-03            00003RAFK30  000032019090520190705ｺ2113浜松ベース　　　　　　　105093308133ﾀ52934993973563916PCB50PS-1.5P                       ZCO-PCB50PS1.5P                         両端５０ピンＤ−ＳＵＢコネクタシ−ルドケーブル　　　　　　　　　　　　　　　　　00000000055500000000060000000000000000001         2019072701            　　　　　　　　　　　　　　　　　　　　　　　　　　　　　　0000000000            　　　　　　　　　　　　　　　　　　　　　　　　　　　　　　00000000600
2019101516052900015V0000112125851-01            00001RAFK33  000012019101120190727ｺ2113東京ベース　　　　　　　105093308133ﾀ52934993973599656DIO-1616B-LPE                      ZCO-DIO1616BLPE                         Low Profile対応絶縁型デジタル入出力ボード　　　　　　　　　　　　　　　　　　　 00000000285000000000010000000000000000001         2019072701            　　　　　　　　　　　　　　　　　　　　　　　　　　　　　　0000000000            　　　　　　　　　　　　　　　　　　　　　　　　　　　　　　00000000100
2019101516052900016V0000112125851-02            00002RAFK34  000012019101120190727ｺ2113東京ベース　　　　　　　105093308133ﾀ52934993973563947PCE50/37PS-0.5P                    ZCO-PCE5037PS0.5P                       ５０ピン→３７ピン変換ケーブル　　　　　　　　　　　　　　　　　　　　　　　　　00000000053250000000010000000000000000001         2019072701            　　　　　　　　　　　　　　　　　　　　　　　　　　　　　　0000000000            　　　　　　　　　　　　　　　　　　　　　　　　　　　　　　00000000100
2019101516052900017V0000112125851-03            00003RAFK33  000022019101120190727ｺ2113東京ベース　　　　　　　105093308133ﾀ52934993973547145PCB37PS-1.5P                       ZCO-PCB37PS15P                          両端３７ピンＤ−ＳＵＢコネクタ付シ−ルドケーブル　　　　　　　　　　　　　　　　00000000053250000000010000000000000000001         2019072701            　　　　　　　　　　　　　　　　　　　　　　　　　　　　　　0000000000            　　　　　　　　　　　　　　　　　　　　　　　　　　　　　　00000000100
2019101516052900018V0000112125851-04            00004RAFK34  000022019101120190727ｺ2113東京ベース　　　　　　　105093308133ﾀ52934993973585505CM-32L                             ZCO-CM32L                               デジタル入出力信号モニタアクセサリ(32点)　　　　　　　　　　　　　　　　　　　　00000000115500000000010000000000000000001         2019072701            　　　　　　　　　　　　　　　　　　　　　　　　　　　　　　0000000000            　　　　　　　　　　　　　　　　　　　　　　　　　　　　　　00000000100
2019101516052900019V0000112126364-01            00001RAFK31  000012019101120190727ｺ2113京滋ベース　　　　　　　105093308133ﾀ52934993973573045COM-1C-LPE                         ZCO-COM1CLPE                            ＲＳ−２３２Ｃ通信ボード　ＰＣＩ　Ｅｘｐｒｅｓｓ　　　　　　　　　　　　　　　　00000000194250000000050000000000000000001         2019072701            　　　　　　　　　　　　　　　　　　　　　　　　　　　　　　0000000000            　　　　　　　　　　　　　　　　　　　　　　　　　　　　　　00000000500
2019101516052900020V00001DZ256663-01            00001RAFK2Z  000012019090520190705ｺ2113仙台ベース　　　　　　　105093308133ﾀ52934993973579177SMC-4DL-PE                         ZCO-SMC4DLPE                            モーションコントロールボード　　　　　　　　　　　　　　　　　　　　　　　　　　0000000043275000000004000000000000000000104423-0092019072701            　　　　　　　　　　　　　　　　　　　　　　　　　　　　　　0000000000            　　　　　　　　　　　　　　　　　　　　　　　　　　　　　　00000000400
2019101516052900021V00001DZ256663-02            00002RAFK2Z  000022019090520190705ｺ2113仙台ベース　　　　　　　105093308133ﾀ52934993973573564DIO-3232L-PE                       ZCO-DIO3232LPE                          絶縁型デジタル入出力ボード　ＰＣＩ　Ｅｘｐｒｅｓｓ　　　　　　　　　　　　　　　0000000032700000000004000000000000000000104423-0092019072701            　　　　　　　　　　　　　　　　　　　　　　　　　　　　　　0000000000            　　　　　　　　　　　　　　　　　　　　　　　　　　　　　　00000000400
2019/10/15 0000021
2019101519000300001V0000111827756-01            00001RAFK2X  000012019072620190726ｺ2113東京ベース　　　　　　　105093308133ﾀ52934993973593340ESP-F5A                            ZCO-ESPF5A                              保証延長サービスパック 5年一括 ランクA　　　　　　　　　　　　　　　　　　　　　00000000060000000000010000000000000000001         2019072701            　　　　　　　　　　　　　　　　　　　　　　　　　　　　　　0000000000            　　　　　　　　　　　　　　　　　　　　　　　　　　　　　　00000000100
2019101519000300002V0000111828450-01            00001RAFK2Y  000012019072620190726ｺ2113立川ベース　　　　　　　105093308133ﾀ52934993973576695DIO-1616B-PE                       ZCO-DIO1616BPE                          絶縁型デジタル入出力ボード　ＰＣＩ　Ｅｘｐｒｅｓｓ　　　　　　　　　　　　　　　00000000291750000000020000000000000000001         2019072701            　　　　　　　　　　　　　　　　　　　　　　　　　　　　　　0000000000            　　　　　　　　　　　　　　　　　　　　　　　　　　　　　　00000000200
2019101519000300003V0000111962033-01            00001RAFK2W  000012019090220190727ｺ2113東京ベース　　　　　　　105093308133ﾀ52934993973599274AIO-160802GY-USB                   ZCO-AIO160802GYUSB                      高精度アナログ入出力ターミナル　　　　　　　　　　　　　　　　　　　　　　　　　00000000555000000000040000000000000000001         2019072701            　　　　　　　　　　　　　　　　　　　　　　　　　　　　　　0000000000            　　　　　　　　　　　　　　　　　　　　　　　　　　　　　　00000000400
2019101519000300004V0000111972780-01            00001RAFK36  000012019090320190727ｺ2113立川ベース　　　　　　　105093308133ﾀ52934993973599649DIO-1616L-LPE                      ZCO-DIO1616LLPE                         Low Profile対応絶縁型デジタル入出力ボード　　　　　　　　　　　　　　　　　　　 00000000225000000000020000000000000000001         2019072701            　　　　　　　　　　　　　　　　　　　　　　　　　　　　　　0000000000            　　　　　　　　　　　　　　　　　　　　　　　　　　　　　　00000000200
2019101519000300005V0000111972780-02            00002RAFK35  000012019090320190727ｺ2113名古屋ベース　　　　　　105093308133ﾀ52934993973563916PCB50PS-1.5P                       ZCO-PCB50PS1.5P                         両端５０ピンＤ−ＳＵＢコネクタシ−ルドケーブル　　　　　　　　　　　　　　　　　00000000055500000000020000000000000000001         2019072701            　　　　　　　　　　　　　　　　　　　　　　　　　　　　　　0000000000            　　　　　　　　　　　　　　　　　　　　　　　　　　　　　　00000000200
2019101519000300006V0000111972780-03            00003RAFK35  000022019090320190727ｺ2113名古屋ベース　　　　　　105093308133ﾀ52934993973564005EPD-50A                            ZCO-EPD50A                              圧着用中継端子台（Ｍ３ネジ、５０点）　　　　　　　　　　　　　　　　　　　　　　00000000106500000000020000000000000000001         2019072701            　　　　　　　　　　　　　　　　　　　　　　　　　　　　　　0000000000            　　　　　　　　　　　　　　　　　　　　　　　　　　　　　　00000000200
2019101519000300007V0000111979989-01            00001RAFK32  000012019090520190727ｺ2113名古屋ベース　　　　　　105093308133ﾀ52934993973582801AIO-163202FX-USB                   ZCO-AIO163202FXUSB                      アナログ入出力ユニット 500KSPS 16ビット分解能　　　　　　　　　　　　　　　　　 00000001111500000000010000000000000000001         2019072701            　　　　　　　　　　　　　　　　　　　　　　　　　　　　　　0000000000            　　　　　　　　　　　　　　　　　　　　　　　　　　　　　　00000000100
2019101519000300008V0000111979989-02            00002RAFK32  000022019090520190727ｺ2113名古屋ベース　　　　　　105093308133ﾀ52934993973568065PCB96PS-1.5P                       ZCO-PCB96PS15P                          両端９６ピンコネクタ付シールドケーブル　　　　　　　　　　　　　　　　　　　　　00000000106500000000010000000000000000001         2019072701            　　　　　　　　　　　　　　　　　　　　　　　　　　　　　　0000000000            　　　　　　　　　　　　　　　　　　　　　　　　　　　　　　00000000100
2019101519000300009V0000111979989-03            00003RAFK32  000032019090520190727ｺ2113名古屋ベース　　　　　　105093308133ﾀ52934993973585536DTP-64A                            ZCO-DTP64A                              導線用中継端子台　　　　　　　　　　　　　　　　　　　　　　　　　　　　　　　　00000000181300000000010000000000000000001         2019072701            　　　　　　　　　　　　　　　　　　　　　　　　　　　　　　0000000000            　　　　　　　　　　　　　　　　　　　　　　　　　　　　　　00000000100
2019101519000300010V0000111979989-04            00004RAFK32  000042019090520190727ｺ2113名古屋ベース　　　　　　105093308133ﾀ52934993973586557RRY-16CX-USB                       ZCO-RRY16CXUSB                          USB対応　独立コモンリードリレー接点デジタル出力ユ　　　　　　　　　　　　　　　 00000000494250000000010000000000000000001         2019072701            　　　　　　　　　　　　　　　　　　　　　　　　　　　　　　0000000000            　　　　　　　　　　　　　　　　　　　　　　　　　　　　　　00000000100
2019101519000300011V0000111979989-05            00005RAFK32  000052019090520190727ｺ2113名古屋ベース　　　　　　105093308133ﾀ52934993973547145PCB37PS-1.5P                       ZCO-PCB37PS15P                          両端３７ピンＤ−ＳＵＢコネクタ付シ−ルドケーブル　　　　　　　　　　　　　　　　00000000053250000000010000000000000000001         2019072701            　　　　　　　　　　　　　　　　　　　　　　　　　　　　　　0000000000            　　　　　　　　　　　　　　　　　　　　　　　　　　　　　　00000000100
2019101519000300012V0000111980083-01            00001RAFK30  000012019090520190705ｺ2113浜松ベース　　　　　　　105093308133ﾀ52934993973599656DIO-1616B-LPE                      ZCO-DIO1616BLPE                         Low Profile対応絶縁型デジタル入出力ボード　　　　　　　　　　　　　　　　　　　 00000000285000000000060000000000000000001         2019072701            　　　　　　　　　　　　　　　　　　　　　　　　　　　　　　0000000000            　　　　　　　　　　　　　　　　　　　　　　　　　　　　　　00000000600
2019101519000300013V0000111980083-02            00002RAFK30  000022019090520190705ｺ2113浜松ベース　　　　　　　105093308133ﾀ52934993973564005EPD-50A                            ZCO-EPD50A                              圧着用中継端子台（Ｍ３ネジ、５０点）　　　　　　　　　　　　　　　　　　　　　　00000000106500000000060000000000000000001         2019072701            　　　　　　　　　　　　　　　　　　　　　　　　　　　　　　0000000000            　　　　　　　　　　　　　　　　　　　　　　　　　　　　　　00000000600
2019101519000300014V0000111980083-03            00003RAFK30  000032019090520190705ｺ2113浜松ベース　　　　　　　105093308133ﾀ52934993973563916PCB50PS-1.5P                       ZCO-PCB50PS1.5P                         両端５０ピンＤ−ＳＵＢコネクタシ−ルドケーブル　　　　　　　　　　　　　　　　　00000000055500000000060000000000000000001         2019072701            　　　　　　　　　　　　　　　　　　　　　　　　　　　　　　0000000000            　　　　　　　　　　　　　　　　　　　　　　　　　　　　　　00000000600
2019101519000300015V0000112125851-01            00001RAFK33  000012019101120190727ｺ2113東京ベース　　　　　　　105093308133ﾀ52934993973599656DIO-1616B-LPE                      ZCO-DIO1616BLPE                         Low Profile対応絶縁型デジタル入出力ボード　　　　　　　　　　　　　　　　　　　 00000000285000000000010000000000000000001         2019072701            　　　　　　　　　　　　　　　　　　　　　　　　　　　　　　0000000000            　　　　　　　　　　　　　　　　　　　　　　　　　　　　　　00000000100
2019101519000300016V0000112125851-02            00002RAFK34  000012019101120190727ｺ2113東京ベース　　　　　　　105093308133ﾀ52934993973563947PCE50/37PS-0.5P                    ZCO-PCE5037PS0.5P                       ５０ピン→３７ピン変換ケーブル　　　　　　　　　　　　　　　　　　　　　　　　　00000000053250000000010000000000000000001         2019072701            　　　　　　　　　　　　　　　　　　　　　　　　　　　　　　0000000000            　　　　　　　　　　　　　　　　　　　　　　　　　　　　　　00000000100
2019101519000300017V0000112125851-03            00003RAFK33  000022019101120190727ｺ2113東京ベース　　　　　　　105093308133ﾀ52934993973547145PCB37PS-1.5P                       ZCO-PCB37PS15P                          両端３７ピンＤ−ＳＵＢコネクタ付シ−ルドケーブル　　　　　　　　　　　　　　　　00000000053250000000010000000000000000001         2019072701            　　　　　　　　　　　　　　　　　　　　　　　　　　　　　　0000000000            　　　　　　　　　　　　　　　　　　　　　　　　　　　　　　00000000100
2019101519000300018V0000112125851-04            00004RAFK34  000022019101120190727ｺ2113東京ベース　　　　　　　105093308133ﾀ52934993973585505CM-32L                             ZCO-CM32L                               デジタル入出力信号モニタアクセサリ(32点)　　　　　　　　　　　　　　　　　　　　00000000115500000000010000000000000000001         2019072701            　　　　　　　　　　　　　　　　　　　　　　　　　　　　　　0000000000            　　　　　　　　　　　　　　　　　　　　　　　　　　　　　　00000000100
2019101519000300019V0000112126364-01            00001RAFK31  000012019101120190727ｺ2113京滋ベース　　　　　　　105093308133ﾀ52934993973573045COM-1C-LPE                         ZCO-COM1CLPE                            ＲＳ−２３２Ｃ通信ボード　ＰＣＩ　Ｅｘｐｒｅｓｓ　　　　　　　　　　　　　　　　00000000194250000000050000000000000000001         2019072701            　　　　　　　　　　　　　　　　　　　　　　　　　　　　　　0000000000            　　　　　　　　　　　　　　　　　　　　　　　　　　　　　　00000000500
2019101519000300020V00001DZ256663-01            00001RAFK2Z  000012019090520190705ｺ2113仙台ベース　　　　　　　105093308133ﾀ52934993973579177SMC-4DL-PE                         ZCO-SMC4DLPE                            モーションコントロールボード　　　　　　　　　　　　　　　　　　　　　　　　　　0000000043275000000004000000000000000000104423-0092019072701            　　　　　　　　　　　　　　　　　　　　　　　　　　　　　　0000000000            　　　　　　　　　　　　　　　　　　　　　　　　　　　　　　00000000400
2019101519000300021V00001DZ256663-02            00002RAFK2Z  000022019090520190705ｺ2113仙台ベース　　　　　　　105093308133ﾀ52934993973573564DIO-3232L-PE                       ZCO-DIO3232LPE                          絶縁型デジタル入出力ボード　ＰＣＩ　Ｅｘｐｒｅｓｓ　　　　　　　　　　　　　　　0000000032700000000004000000000000000000104423-0092019072701            　　　　　　　　　　　　　　　　　　　　　　　　　　　　　　0000000000            　　　　　　　　　　　　　　　　　　　　　　　　　　　　　　00000000400
2019/10/15 0000021
2019101610185700001V0000111830822-01            00001RAFK38  000012019072620190726ｺ2113大阪ベース　　　　　　　105093308133ﾀ52934993973590981POW-CB50AF                         ZCO-POWCB50AF                           FLEXLAN IEEE802.3af準拠PoEインジェクタ（GigaLAN対　　　　　　　　　　　　　　　 00000000141700000000010000000000000000001         2019072901            　　　　　　　　　　　　　　　　　　　　　　　　　　　　　　0000000000            　　　　　　　　　　　　　　　　　　　　　　　　　　　　　　00000000100
2019101610185700002V00001FZ991711-01            00001RAFK37  000012019072620190726ｺ2113大阪ベース　　　　　　　105093308133ﾀ52934993973559377COM-4(LPCI)H                       ZCO-COM4LPCIH                           ＲＳ−２３２Ｃ通信ボード　４ｃｈ　　　　　　　　　　　　　　　　　　　　　　　　0000000022950000000001000000000000000000128100-0402019072901            　　　　　　　　　　　　　　　　　　　　　　　　　　　　　　0000000000            　　　　　　　　　　　　　　　　　　　　　　　　　　　　　　00000000100
2019101610185700003V00001FZ991711-02            00002RAFK37  000022019072620190726ｺ2113大阪ベース　　　　　　　105093308133ﾀ52934993973559315PCE44/9P4S                         ZCO-PCE449P4S                           ＣＯＭ−４ｃｈ（４４ピン）用分配ケーブル　　　　　　　　　　　　　　　　　　　　0000000006225000000001000000000000000000128100-0402019072901            　　　　　　　　　　　　　　　　　　　　　　　　　　　　　　0000000000            　　　　　　　　　　　　　　　　　　　　　　　　　　　　　　00000000100
2019/10/16 0000003
2019101610245800001V0000111830822-01            00001RAFK38  000012019072620190726ｺ2113大阪ベース　　　　　　　105093308133ﾀ52934993973590981POW-CB50AF                         ZCO-POWCB50AF                           FLEXLAN IEEE802.3af準拠PoEインジェクタ（GigaLAN対　　　　　　　　　　　　　　　 00000000141700000000010000000000000000001         2019072901            　　　　　　　　　　　　　　　　　　　　　　　　　　　　　　0000000000            　　　　　　　　　　　　　　　　　　　　　　　　　　　　　　00000000100
2019101610245800002V00001FZ991711-01            00001RAFK37  000012019072620190726ｺ2113大阪ベース　　　　　　　105093308133ﾀ52934993973559377COM-4(LPCI)H                       ZCO-COM4LPCIH                           ＲＳ−２３２Ｃ通信ボード　４ｃｈ　　　　　　　　　　　　　　　　　　　　　　　　0000000022950000000001000000000000000000128100-0402019072901            　　　　　　　　　　　　　　　　　　　　　　　　　　　　　　0000000000            　　　　　　　　　　　　　　　　　　　　　　　　　　　　　　00000000100
2019101610245800003V00001FZ991711-02            00002RAFK37  000022019072620190726ｺ2113大阪ベース　　　　　　　105093308133ﾀ52934993973559315PCE44/9P4S                         ZCO-PCE449P4S                           ＣＯＭ−４ｃｈ（４４ピン）用分配ケーブル　　　　　　　　　　　　　　　　　　　　0000000006225000000001000000000000000000128100-0402019072901            　　　　　　　　　　　　　　　　　　　　　　　　　　　　　　0000000000            　　　　　　　　　　　　　　　　　　　　　　　　　　　　　　00000000100
2019/10/16 0000003
2019101610352000001V0000111830822-01            00001RAFK38  000012019072620190726ｺ2113大阪ベース　　　　　　　105093308133ﾀ52934993973590981POW-CB50AF                         ZCO-POWCB50AF                           FLEXLAN IEEE802.3af準拠PoEインジェクタ（GigaLAN対　　　　　　　　　　　　　　　 00000000141700000000010000000000000000001         2019072901            　　　　　　　　　　　　　　　　　　　　　　　　　　　　　　0000000000            　　　　　　　　　　　　　　　　　　　　　　　　　　　　　　00000000100
2019101610352000002V00001FZ991711-01            00001RAFK37  000012019072620190726ｺ2113大阪ベース　　　　　　　105093308133ﾀ52934993973559377COM-4(LPCI)H                       ZCO-COM4LPCIH                           ＲＳ−２３２Ｃ通信ボード　４ｃｈ　　　　　　　　　　　　　　　　　　　　　　　　0000000022950000000001000000000000000000128100-0402019072901            　　　　　　　　　　　　　　　　　　　　　　　　　　　　　　0000000000            　　　　　　　　　　　　　　　　　　　　　　　　　　　　　　00000000100
2019101610352000003V00001FZ991711-02            00002RAFK37  000022019072620190726ｺ2113大阪ベース　　　　　　　105093308133ﾀ52934993973559315PCE44/9P4S                         ZCO-PCE449P4S                           ＣＯＭ−４ｃｈ（４４ピン）用分配ケーブル　　　　　　　　　　　　　　　　　　　　0000000006225000000001000000000000000000128100-0402019072901            　　　　　　　　　　　　　　　　　　　　　　　　　　　　　　0000000000            　　　　　　　　　　　　　　　　　　　　　　　　　　　　　　00000000100
2019/10/16 0000003
2019101614523300001V0000111827756-01            00001RAFK2X  000012019072620190726ｺ2113東京ベース　　　　　　　105093308133ﾀ52934993973593340ESP-F5A                            ZCO-ESPF5A                              保証延長サービスパック 5年一括 ランクA　　　　　　　　　　　　　　　　　　　　　00000000060000000000010000000000000000001         2019072701            　　　　　　　　　　　　　　　　　　　　　　　　　　　　　　0000000000            　　　　　　　　　　　　　　　　　　　　　　　　　　　　　　00000000100
2019101614523300002V0000111828450-01            00001RAFK2Y  000012019072620190726ｺ2113立川ベース　　　　　　　105093308133ﾀ52934993973576695DIO-1616B-PE                       ZCO-DIO1616BPE                          絶縁型デジタル入出力ボード　ＰＣＩ　Ｅｘｐｒｅｓｓ　　　　　　　　　　　　　　　00000000291750000000020000000000000000001         2019072701            　　　　　　　　　　　　　　　　　　　　　　　　　　　　　　0000000000            　　　　　　　　　　　　　　　　　　　　　　　　　　　　　　00000000200
2019101614523300003V0000111962033-01            00001RAFK2W  000012019090220190727ｺ2113東京ベース　　　　　　　105093308133ﾀ52934993973599274AIO-160802GY-USB                   ZCO-AIO160802GYUSB                      高精度アナログ入出力ターミナル　　　　　　　　　　　　　　　　　　　　　　　　　00000000555000000000040000000000000000001         2019072701            　　　　　　　　　　　　　　　　　　　　　　　　　　　　　　0000000000            　　　　　　　　　　　　　　　　　　　　　　　　　　　　　　00000000400
2019101614523300004V0000111966374-01            00001RAFK3A  000012019090220190727ｺ2113広島ベース　　　　　　　105093308133ﾀ52934993973574646PCB68PS-0.5P                       ZCO-PCB68PS05P                          両端６８ピンコネクタ付シールドケーブル　0.5ｍ　　　　　　　　　　　　　　　　　 00000000062250000000020000000000000000001         2019072701            　　　　　　　　　　　　　　　　　　　　　　　　　　　　　　0000000000            　　　　　　　　　　　　　　　　　　　　　　　　　　　　　　00000000200
2019101614523300005V0000111966374-02            00002RAFK3A  000022019090220190727ｺ2113広島ベース　　　　　　　105093308133ﾀ52934993973574608PCB100PS-0.5                       ZCO-PCB100PS05                          両端１００ピンコネクタ付シールドケーブル　0.5ｍ　　　　　　　　　　　　　　　　 00000000106500000000010000000000000000001         2019072701            　　　　　　　　　　　　　　　　　　　　　　　　　　　　　　0000000000            　　　　　　　　　　　　　　　　　　　　　　　　　　　　　　00000000100
2019101614523300006V0000111972780-01            00001RAFK36  000012019090320190727ｺ2113立川ベース　　　　　　　105093308133ﾀ52934993973599649DIO-1616L-LPE                      ZCO-DIO1616LLPE                         Low Profile対応絶縁型デジタル入出力ボード　　　　　　　　　　　　　　　　　　　 00000000225000000000020000000000000000001         2019072701            　　　　　　　　　　　　　　　　　　　　　　　　　　　　　　0000000000            　　　　　　　　　　　　　　　　　　　　　　　　　　　　　　00000000200
2019101614523300007V0000111972780-02            00002RAFK35  000012019090320190727ｺ2113名古屋ベース　　　　　　105093308133ﾀ52934993973563916PCB50PS-1.5P                       ZCO-PCB50PS1.5P                         両端５０ピンＤ−ＳＵＢコネクタシ−ルドケーブル　　　　　　　　　　　　　　　　　00000000055500000000020000000000000000001         2019072701            　　　　　　　　　　　　　　　　　　　　　　　　　　　　　　0000000000            　　　　　　　　　　　　　　　　　　　　　　　　　　　　　　00000000200
2019101614523300008V0000111972780-03            00003RAFK35  000022019090320190727ｺ2113名古屋ベース　　　　　　105093308133ﾀ52934993973564005EPD-50A                            ZCO-EPD50A                              圧着用中継端子台（Ｍ３ネジ、５０点）　　　　　　　　　　　　　　　　　　　　　　00000000106500000000020000000000000000001         2019072701            　　　　　　　　　　　　　　　　　　　　　　　　　　　　　　0000000000            　　　　　　　　　　　　　　　　　　　　　　　　　　　　　　00000000200
2019101614523300009V0000111979989-01            00001RAFK32  000012019090520190727ｺ2113名古屋ベース　　　　　　105093308133ﾀ52934993973582801AIO-163202FX-USB                   ZCO-AIO163202FXUSB                      アナログ入出力ユニット 500KSPS 16ビット分解能　　　　　　　　　　　　　　　　　 00000001111500000000010000000000000000001         2019072701            　　　　　　　　　　　　　　　　　　　　　　　　　　　　　　0000000000            　　　　　　　　　　　　　　　　　　　　　　　　　　　　　　00000000100
2019101614523300010V0000111979989-02            00002RAFK32  000022019090520190727ｺ2113名古屋ベース　　　　　　105093308133ﾀ52934993973568065PCB96PS-1.5P                       ZCO-PCB96PS15P                          両端９６ピンコネクタ付シールドケーブル　　　　　　　　　　　　　　　　　　　　　00000000106500000000010000000000000000001         2019072701            　　　　　　　　　　　　　　　　　　　　　　　　　　　　　　0000000000            　　　　　　　　　　　　　　　　　　　　　　　　　　　　　　00000000100
2019101614523300011V0000111979989-03            00003RAFK32  000032019090520190727ｺ2113名古屋ベース　　　　　　105093308133ﾀ52934993973585536DTP-64A                            ZCO-DTP64A                              導線用中継端子台　　　　　　　　　　　　　　　　　　　　　　　　　　　　　　　　00000000181300000000010000000000000000001         2019072701            　　　　　　　　　　　　　　　　　　　　　　　　　　　　　　0000000000            　　　　　　　　　　　　　　　　　　　　　　　　　　　　　　00000000100
2019101614523300012V0000111979989-04            00004RAFK32  000042019090520190727ｺ2113名古屋ベース　　　　　　105093308133ﾀ52934993973586557RRY-16CX-USB                       ZCO-RRY16CXUSB                          USB対応　独立コモンリードリレー接点デジタル出力ユ　　　　　　　　　　　　　　　 00000000494250000000010000000000000000001         2019072701            　　　　　　　　　　　　　　　　　　　　　　　　　　　　　　0000000000            　　　　　　　　　　　　　　　　　　　　　　　　　　　　　　00000000100
2019101614523300013V0000111979989-05            00005RAFK32  000052019090520190727ｺ2113名古屋ベース　　　　　　105093308133ﾀ52934993973547145PCB37PS-1.5P                       ZCO-PCB37PS15P                          両端３７ピンＤ−ＳＵＢコネクタ付シ−ルドケーブル　　　　　　　　　　　　　　　　00000000053250000000010000000000000000001         2019072701            　　　　　　　　　　　　　　　　　　　　　　　　　　　　　　0000000000            　　　　　　　　　　　　　　　　　　　　　　　　　　　　　　00000000100
2019101614523300014V0000111980083-01            00001RAFK30  000012019090520190705ｺ2113浜松ベース　　　　　　　105093308133ﾀ52934993973599656DIO-1616B-LPE                      ZCO-DIO1616BLPE                         Low Profile対応絶縁型デジタル入出力ボード　　　　　　　　　　　　　　　　　　　 00000000285000000000060000000000000000001         2019072701            　　　　　　　　　　　　　　　　　　　　　　　　　　　　　　0000000000            　　　　　　　　　　　　　　　　　　　　　　　　　　　　　　00000000600
2019101614523300015V0000111980083-02            00002RAFK30  000022019090520190705ｺ2113浜松ベース　　　　　　　105093308133ﾀ52934993973564005EPD-50A                            ZCO-EPD50A                              圧着用中継端子台（Ｍ３ネジ、５０点）　　　　　　　　　　　　　　　　　　　　　　00000000106500000000060000000000000000001         2019072701            　　　　　　　　　　　　　　　　　　　　　　　　　　　　　　0000000000            　　　　　　　　　　　　　　　　　　　　　　　　　　　　　　00000000600
2019101614523300016V0000111980083-03            00003RAFK30  000032019090520190705ｺ2113浜松ベース　　　　　　　105093308133ﾀ52934993973563916PCB50PS-1.5P                       ZCO-PCB50PS1.5P                         両端５０ピンＤ−ＳＵＢコネクタシ−ルドケーブル　　　　　　　　　　　　　　　　　00000000055500000000060000000000000000001         2019072701            　　　　　　　　　　　　　　　　　　　　　　　　　　　　　　0000000000            　　　　　　　　　　　　　　　　　　　　　　　　　　　　　　00000000600
2019101614523300017V0000112125851-01            00001RAFK33  000012019101120190727ｺ2113東京ベース　　　　　　　105093308133ﾀ52934993973599656DIO-1616B-LPE                      ZCO-DIO1616BLPE                         Low Profile対応絶縁型デジタル入出力ボード　　　　　　　　　　　　　　　　　　　 00000000285000000000010000000000000000001         2019072701            　　　　　　　　　　　　　　　　　　　　　　　　　　　　　　0000000000            　　　　　　　　　　　　　　　　　　　　　　　　　　　　　　00000000100
2019101614523300018V0000112125851-02            00002RAFK34  000012019101120190727ｺ2113東京ベース　　　　　　　105093308133ﾀ52934993973563947PCE50/37PS-0.5P                    ZCO-PCE5037PS0.5P                       ５０ピン→３７ピン変換ケーブル　　　　　　　　　　　　　　　　　　　　　　　　　00000000053250000000010000000000000000001         2019072701            　　　　　　　　　　　　　　　　　　　　　　　　　　　　　　0000000000            　　　　　　　　　　　　　　　　　　　　　　　　　　　　　　00000000100
2019101614523300019V0000112125851-03            00003RAFK33  000022019101120190727ｺ2113東京ベース　　　　　　　105093308133ﾀ52934993973547145PCB37PS-1.5P                       ZCO-PCB37PS15P                          両端３７ピンＤ−ＳＵＢコネクタ付シ−ルドケーブル　　　　　　　　　　　　　　　　00000000053250000000010000000000000000001         2019072701            　　　　　　　　　　　　　　　　　　　　　　　　　　　　　　0000000000            　　　　　　　　　　　　　　　　　　　　　　　　　　　　　　00000000100
2019101614523300020V0000112125851-04            00004RAFK34  000022019101120190727ｺ2113東京ベース　　　　　　　105093308133ﾀ52934993973585505CM-32L                             ZCO-CM32L                               デジタル入出力信号モニタアクセサリ(32点)　　　　　　　　　　　　　　　　　　　　00000000115500000000010000000000000000001         2019072701            　　　　　　　　　　　　　　　　　　　　　　　　　　　　　　0000000000            　　　　　　　　　　　　　　　　　　　　　　　　　　　　　　00000000100
2019101614523300021V0000112126364-01            00001RAFK31  000012019101120190727ｺ2113京滋ベース　　　　　　　105093308133ﾀ52934993973573045COM-1C-LPE                         ZCO-COM1CLPE                            ＲＳ−２３２Ｃ通信ボード　ＰＣＩ　Ｅｘｐｒｅｓｓ　　　　　　　　　　　　　　　　00000000194250000000050000000000000000001         2019072701            　　　　　　　　　　　　　　　　　　　　　　　　　　　　　　0000000000            　　　　　　　　　　　　　　　　　　　　　　　　　　　　　　00000000500
2019101614523300022V00001DZ256663-01            00001RAFK2Z  000012019090520190705ｺ2113仙台ベース　　　　　　　105093308133ﾀ52934993973579177SMC-4DL-PE                         ZCO-SMC4DLPE                            モーションコントロールボード　　　　　　　　　　　　　　　　　　　　　　　　　　0000000043275000000004000000000000000000104423-0092019072701            　　　　　　　　　　　　　　　　　　　　　　　　　　　　　　0000000000            　　　　　　　　　　　　　　　　　　　　　　　　　　　　　　00000000400
2019101614523300023V00001DZ256663-02            00002RAFK2Z  000022019090520190705ｺ2113仙台ベース　　　　　　　105093308133ﾀ52934993973573564DIO-3232L-PE                       ZCO-DIO3232LPE                          絶縁型デジタル入出力ボード　ＰＣＩ　Ｅｘｐｒｅｓｓ　　　　　　　　　　　　　　　0000000032700000000004000000000000000000104423-0092019072701            　　　　　　　　　　　　　　　　　　　　　　　　　　　　　　0000000000            　　　　　　　　　　　　　　　　　　　　　　　　　　　　　　00000000400
2019/10/16 0000023
2019101619000300001V0000111827756-01            00001RAFK2X  000012019072620190726ｺ2113東京ベース　　　　　　　105093308133ﾀ52934993973593340ESP-F5A                            ZCO-ESPF5A                              保証延長サービスパック 5年一括 ランクA　　　　　　　　　　　　　　　　　　　　　00000000060000000000010000000000000000001         2019072701            　　　　　　　　　　　　　　　　　　　　　　　　　　　　　　0000000000            　　　　　　　　　　　　　　　　　　　　　　　　　　　　　　00000000100
2019101619000300002V0000111828450-01            00001RAFK2Y  000012019072620190726ｺ2113立川ベース　　　　　　　105093308133ﾀ52934993973576695DIO-1616B-PE                       ZCO-DIO1616BPE                          絶縁型デジタル入出力ボード　ＰＣＩ　Ｅｘｐｒｅｓｓ　　　　　　　　　　　　　　　00000000291750000000020000000000000000001         2019072701            　　　　　　　　　　　　　　　　　　　　　　　　　　　　　　0000000000            　　　　　　　　　　　　　　　　　　　　　　　　　　　　　　00000000200
2019101619000300003V0000111962033-01            00001RAFK2W  000012019090220190727ｺ2113東京ベース　　　　　　　105093308133ﾀ52934993973599274AIO-160802GY-USB                   ZCO-AIO160802GYUSB                      高精度アナログ入出力ターミナル　　　　　　　　　　　　　　　　　　　　　　　　　00000000555000000000040000000000000000001         2019072701            　　　　　　　　　　　　　　　　　　　　　　　　　　　　　　0000000000            　　　　　　　　　　　　　　　　　　　　　　　　　　　　　　00000000400
2019101619000300004V0000111966374-01            00001RAFK3A  000012019090220190727ｺ2113広島ベース　　　　　　　105093308133ﾀ52934993973574646PCB68PS-0.5P                       ZCO-PCB68PS05P                          両端６８ピンコネクタ付シールドケーブル　0.5ｍ　　　　　　　　　　　　　　　　　 00000000062250000000020000000000000000001         2019072701            　　　　　　　　　　　　　　　　　　　　　　　　　　　　　　0000000000            　　　　　　　　　　　　　　　　　　　　　　　　　　　　　　00000000200
2019101619000300005V0000111966374-02            00002RAFK3A  000022019090220190727ｺ2113広島ベース　　　　　　　105093308133ﾀ52934993973574608PCB100PS-0.5                       ZCO-PCB100PS05                          両端１００ピンコネクタ付シールドケーブル　0.5ｍ　　　　　　　　　　　　　　　　 00000000106500000000010000000000000000001         2019072701            　　　　　　　　　　　　　　　　　　　　　　　　　　　　　　0000000000            　　　　　　　　　　　　　　　　　　　　　　　　　　　　　　00000000100
2019101619000300006V0000111972780-01            00001RAFK36  000012019090320190727ｺ2113立川ベース　　　　　　　105093308133ﾀ52934993973599649DIO-1616L-LPE                      ZCO-DIO1616LLPE                         Low Profile対応絶縁型デジタル入出力ボード　　　　　　　　　　　　　　　　　　　 00000000225000000000020000000000000000001         2019072701            　　　　　　　　　　　　　　　　　　　　　　　　　　　　　　0000000000            　　　　　　　　　　　　　　　　　　　　　　　　　　　　　　00000000200
2019101619000300007V0000111972780-02            00002RAFK35  000012019090320190727ｺ2113名古屋ベース　　　　　　105093308133ﾀ52934993973563916PCB50PS-1.5P                       ZCO-PCB50PS1.5P                         両端５０ピンＤ−ＳＵＢコネクタシ−ルドケーブル　　　　　　　　　　　　　　　　　00000000055500000000020000000000000000001         2019072701            　　　　　　　　　　　　　　　　　　　　　　　　　　　　　　0000000000            　　　　　　　　　　　　　　　　　　　　　　　　　　　　　　00000000200
2019101619000300008V0000111972780-03            00003RAFK35  000022019090320190727ｺ2113名古屋ベース　　　　　　105093308133ﾀ52934993973564005EPD-50A                            ZCO-EPD50A                              圧着用中継端子台（Ｍ３ネジ、５０点）　　　　　　　　　　　　　　　　　　　　　　00000000106500000000020000000000000000001         2019072701            　　　　　　　　　　　　　　　　　　　　　　　　　　　　　　0000000000            　　　　　　　　　　　　　　　　　　　　　　　　　　　　　　00000000200
2019101619000300009V0000111979989-01            00001RAFK32  000012019090520190727ｺ2113名古屋ベース　　　　　　105093308133ﾀ52934993973582801AIO-163202FX-USB                   ZCO-AIO163202FXUSB                      アナログ入出力ユニット 500KSPS 16ビット分解能　　　　　　　　　　　　　　　　　 00000001111500000000010000000000000000001         2019072701            　　　　　　　　　　　　　　　　　　　　　　　　　　　　　　0000000000            　　　　　　　　　　　　　　　　　　　　　　　　　　　　　　00000000100
2019101619000300010V0000111979989-02            00002RAFK32  000022019090520190727ｺ2113名古屋ベース　　　　　　105093308133ﾀ52934993973568065PCB96PS-1.5P                       ZCO-PCB96PS15P                          両端９６ピンコネクタ付シールドケーブル　　　　　　　　　　　　　　　　　　　　　00000000106500000000010000000000000000001         2019072701            　　　　　　　　　　　　　　　　　　　　　　　　　　　　　　0000000000            　　　　　　　　　　　　　　　　　　　　　　　　　　　　　　00000000100
2019101619000300011V0000111979989-03            00003RAFK32  000032019090520190727ｺ2113名古屋ベース　　　　　　105093308133ﾀ52934993973585536DTP-64A                            ZCO-DTP64A                              導線用中継端子台　　　　　　　　　　　　　　　　　　　　　　　　　　　　　　　　00000000181300000000010000000000000000001         2019072701            　　　　　　　　　　　　　　　　　　　　　　　　　　　　　　0000000000            　　　　　　　　　　　　　　　　　　　　　　　　　　　　　　00000000100
2019101619000300012V0000111979989-04            00004RAFK32  000042019090520190727ｺ2113名古屋ベース　　　　　　105093308133ﾀ52934993973586557RRY-16CX-USB                       ZCO-RRY16CXUSB                          USB対応　独立コモンリードリレー接点デジタル出力ユ　　　　　　　　　　　　　　　 00000000494250000000010000000000000000001         2019072701            　　　　　　　　　　　　　　　　　　　　　　　　　　　　　　0000000000            　　　　　　　　　　　　　　　　　　　　　　　　　　　　　　00000000100
2019101619000300013V0000111979989-05            00005RAFK32  000052019090520190727ｺ2113名古屋ベース　　　　　　105093308133ﾀ52934993973547145PCB37PS-1.5P                       ZCO-PCB37PS15P                          両端３７ピンＤ−ＳＵＢコネクタ付シ−ルドケーブル　　　　　　　　　　　　　　　　00000000053250000000010000000000000000001         2019072701            　　　　　　　　　　　　　　　　　　　　　　　　　　　　　　0000000000            　　　　　　　　　　　　　　　　　　　　　　　　　　　　　　00000000100
2019101619000300014V0000111980083-01            00001RAFK30  000012019090520190705ｺ2113浜松ベース　　　　　　　105093308133ﾀ52934993973599656DIO-1616B-LPE                      ZCO-DIO1616BLPE                         Low Profile対応絶縁型デジタル入出力ボード　　　　　　　　　　　　　　　　　　　 00000000285000000000060000000000000000001         2019072701            　　　　　　　　　　　　　　　　　　　　　　　　　　　　　　0000000000            　　　　　　　　　　　　　　　　　　　　　　　　　　　　　　00000000600
2019101619000300015V0000111980083-02            00002RAFK30  000022019090520190705ｺ2113浜松ベース　　　　　　　105093308133ﾀ52934993973564005EPD-50A                            ZCO-EPD50A                              圧着用中継端子台（Ｍ３ネジ、５０点）　　　　　　　　　　　　　　　　　　　　　　00000000106500000000060000000000000000001         2019072701            　　　　　　　　　　　　　　　　　　　　　　　　　　　　　　0000000000            　　　　　　　　　　　　　　　　　　　　　　　　　　　　　　00000000600
2019101619000300016V0000111980083-03            00003RAFK30  000032019090520190705ｺ2113浜松ベース　　　　　　　105093308133ﾀ52934993973563916PCB50PS-1.5P                       ZCO-PCB50PS1.5P                         両端５０ピンＤ−ＳＵＢコネクタシ−ルドケーブル　　　　　　　　　　　　　　　　　00000000055500000000060000000000000000001         2019072701            　　　　　　　　　　　　　　　　　　　　　　　　　　　　　　0000000000            　　　　　　　　　　　　　　　　　　　　　　　　　　　　　　00000000600
2019101619000300017V0000112125851-01            00001RAFK33  000012019101120190727ｺ2113東京ベース　　　　　　　105093308133ﾀ52934993973599656DIO-1616B-LPE                      ZCO-DIO1616BLPE                         Low Profile対応絶縁型デジタル入出力ボード　　　　　　　　　　　　　　　　　　　 00000000285000000000010000000000000000001         2019072701            　　　　　　　　　　　　　　　　　　　　　　　　　　　　　　0000000000            　　　　　　　　　　　　　　　　　　　　　　　　　　　　　　00000000100
2019101619000300018V0000112125851-02            00002RAFK34  000012019101120190727ｺ2113東京ベース　　　　　　　105093308133ﾀ52934993973563947PCE50/37PS-0.5P                    ZCO-PCE5037PS0.5P                       ５０ピン→３７ピン変換ケーブル　　　　　　　　　　　　　　　　　　　　　　　　　00000000053250000000010000000000000000001         2019072701            　　　　　　　　　　　　　　　　　　　　　　　　　　　　　　0000000000            　　　　　　　　　　　　　　　　　　　　　　　　　　　　　　00000000100
2019101619000300019V0000112125851-03            00003RAFK33  000022019101120190727ｺ2113東京ベース　　　　　　　105093308133ﾀ52934993973547145PCB37PS-1.5P                       ZCO-PCB37PS15P                          両端３７ピンＤ−ＳＵＢコネクタ付シ−ルドケーブル　　　　　　　　　　　　　　　　00000000053250000000010000000000000000001         2019072701            　　　　　　　　　　　　　　　　　　　　　　　　　　　　　　0000000000            　　　　　　　　　　　　　　　　　　　　　　　　　　　　　　00000000100
2019101619000300020V0000112125851-04            00004RAFK34  000022019101120190727ｺ2113東京ベース　　　　　　　105093308133ﾀ52934993973585505CM-32L                             ZCO-CM32L                               デジタル入出力信号モニタアクセサリ(32点)　　　　　　　　　　　　　　　　　　　　00000000115500000000010000000000000000001         2019072701            　　　　　　　　　　　　　　　　　　　　　　　　　　　　　　0000000000            　　　　　　　　　　　　　　　　　　　　　　　　　　　　　　00000000100
2019101619000300021V0000112126364-01            00001RAFK31  000012019101120190727ｺ2113京滋ベース　　　　　　　105093308133ﾀ52934993973573045COM-1C-LPE                         ZCO-COM1CLPE                            ＲＳ−２３２Ｃ通信ボード　ＰＣＩ　Ｅｘｐｒｅｓｓ　　　　　　　　　　　　　　　　00000000194250000000050000000000000000001         2019072701            　　　　　　　　　　　　　　　　　　　　　　　　　　　　　　0000000000            　　　　　　　　　　　　　　　　　　　　　　　　　　　　　　00000000500
2019101619000300022V00001DZ256663-01            00001RAFK2Z  000012019090520190705ｺ2113仙台ベース　　　　　　　105093308133ﾀ52934993973579177SMC-4DL-PE                         ZCO-SMC4DLPE                            モーションコントロールボード　　　　　　　　　　　　　　　　　　　　　　　　　　0000000043275000000004000000000000000000104423-0092019072701            　　　　　　　　　　　　　　　　　　　　　　　　　　　　　　0000000000            　　　　　　　　　　　　　　　　　　　　　　　　　　　　　　00000000400
2019101619000300023V00001DZ256663-02            00002RAFK2Z  000022019090520190705ｺ2113仙台ベース　　　　　　　105093308133ﾀ52934993973573564DIO-3232L-PE                       ZCO-DIO3232LPE                          絶縁型デジタル入出力ボード　ＰＣＩ　Ｅｘｐｒｅｓｓ　　　　　　　　　　　　　　　0000000032700000000004000000000000000000104423-0092019072701            　　　　　　　　　　　　　　　　　　　　　　　　　　　　　　0000000000            　　　　　　　　　　　　　　　　　　　　　　　　　　　　　　00000000400
2019/10/16 0000023
2019101713164800001V0000111827756-01            00001RAFK2X  000012019072620190726ｺ2113東京ベース　　　　　　　105093308133ﾀ52934993973593340ESP-F5A                            ZCO-ESPF5A                              保証延長サービスパック 5年一括 ランクA　　　　　　　　　　　　　　　　　　　　　00000000060000000000010000000000000000001         2019072701            　　　　　　　　　　　　　　　　　　　　　　　　　　　　　　0000000000            　　　　　　　　　　　　　　　　　　　　　　　　　　　　　　00000000100
2019101713164800002V0000111828450-01            00001RAFK2Y  000012019072620190726ｺ2113立川ベース　　　　　　　105093308133ﾀ52934993973576695DIO-1616B-PE                       ZCO-DIO1616BPE                          絶縁型デジタル入出力ボード　ＰＣＩ　Ｅｘｐｒｅｓｓ　　　　　　　　　　　　　　　00000000291750000000020000000000000000001         2019072701            　　　　　　　　　　　　　　　　　　　　　　　　　　　　　　0000000000            　　　　　　　　　　　　　　　　　　　　　　　　　　　　　　00000000200
2019101713164800003V0000111962033-01            00001RAFK2W  000012019090220190727ｺ2113東京ベース　　　　　　　105093308133ﾀ52934993973599274AIO-160802GY-USB                   ZCO-AIO160802GYUSB                      高精度アナログ入出力ターミナル　　　　　　　　　　　　　　　　　　　　　　　　　00000000555000000000040000000000000000001         2019072701            　　　　　　　　　　　　　　　　　　　　　　　　　　　　　　0000000000            　　　　　　　　　　　　　　　　　　　　　　　　　　　　　　00000000400
2019101713164800004V0000111966374-01            00001RAFK3A  000012019090220190727ｺ2113広島ベース　　　　　　　105093308133ﾀ52934993973574646PCB68PS-0.5P                       ZCO-PCB68PS05P                          両端６８ピンコネクタ付シールドケーブル　0.5ｍ　　　　　　　　　　　　　　　　　 00000000062250000000020000000020000000001         2019072701            　　　　　　　　　　　　　　　　　　　　　　　　　　　　　　0000000000            　　　　　　　　　　　　　　　　　　　　　　　　　　　　　　00000000000
2019101713164800005V0000111966374-02            00002RAFK3A  000022019090220190727ｺ2113広島ベース　　　　　　　105093308133ﾀ52934993973574608PCB100PS-0.5                       ZCO-PCB100PS05                          両端１００ピンコネクタ付シールドケーブル　0.5ｍ　　　　　　　　　　　　　　　　 00000000106500000000010000000010000000001         2019072701            　　　　　　　　　　　　　　　　　　　　　　　　　　　　　　0000000000            　　　　　　　　　　　　　　　　　　　　　　　　　　　　　　00000000000
2019101713164800006V0000111972780-01            00001RAFK36  000012019090320190727ｺ2113立川ベース　　　　　　　105093308133ﾀ52934993973599649DIO-1616L-LPE                      ZCO-DIO1616LLPE                         Low Profile対応絶縁型デジタル入出力ボード　　　　　　　　　　　　　　　　　　　 00000000225000000000020000000000000000001         2019072701            　　　　　　　　　　　　　　　　　　　　　　　　　　　　　　0000000000            　　　　　　　　　　　　　　　　　　　　　　　　　　　　　　00000000200
2019101713164800007V0000111972780-02            00002RAFK35  000012019090320190727ｺ2113名古屋ベース　　　　　　105093308133ﾀ52934993973563916PCB50PS-1.5P                       ZCO-PCB50PS1.5P                         両端５０ピンＤ−ＳＵＢコネクタシ−ルドケーブル　　　　　　　　　　　　　　　　　00000000055500000000020000000000000000001         2019072701            　　　　　　　　　　　　　　　　　　　　　　　　　　　　　　0000000000            　　　　　　　　　　　　　　　　　　　　　　　　　　　　　　00000000200
2019101713164800008V0000111972780-03            00003RAFK35  000022019090320190727ｺ2113名古屋ベース　　　　　　105093308133ﾀ52934993973564005EPD-50A                            ZCO-EPD50A                              圧着用中継端子台（Ｍ３ネジ、５０点）　　　　　　　　　　　　　　　　　　　　　　00000000106500000000020000000000000000001         2019072701            　　　　　　　　　　　　　　　　　　　　　　　　　　　　　　0000000000            　　　　　　　　　　　　　　　　　　　　　　　　　　　　　　00000000200
2019101713164800009V0000111979989-01            00001RAFK32  000012019090520190727ｺ2113名古屋ベース　　　　　　105093308133ﾀ52934993973582801AIO-163202FX-USB                   ZCO-AIO163202FXUSB                      アナログ入出力ユニット 500KSPS 16ビット分解能　　　　　　　　　　　　　　　　　 00000001111500000000010000000000000000001         2019072701            　　　　　　　　　　　　　　　　　　　　　　　　　　　　　　0000000000            　　　　　　　　　　　　　　　　　　　　　　　　　　　　　　00000000100
2019101713164800010V0000111979989-02            00002RAFK32  000022019090520190727ｺ2113名古屋ベース　　　　　　105093308133ﾀ52934993973568065PCB96PS-1.5P                       ZCO-PCB96PS15P                          両端９６ピンコネクタ付シールドケーブル　　　　　　　　　　　　　　　　　　　　　00000000106500000000010000000000000000001         2019072701            　　　　　　　　　　　　　　　　　　　　　　　　　　　　　　0000000000            　　　　　　　　　　　　　　　　　　　　　　　　　　　　　　00000000100
2019101713164800011V0000111979989-03            00003RAFK32  000032019090520190727ｺ2113名古屋ベース　　　　　　105093308133ﾀ52934993973585536DTP-64A                            ZCO-DTP64A                              導線用中継端子台　　　　　　　　　　　　　　　　　　　　　　　　　　　　　　　　00000000181300000000010000000000000000001         2019072701            　　　　　　　　　　　　　　　　　　　　　　　　　　　　　　0000000000            　　　　　　　　　　　　　　　　　　　　　　　　　　　　　　00000000100
2019101713164800012V0000111979989-04            00004RAFK32  000042019090520190727ｺ2113名古屋ベース　　　　　　105093308133ﾀ52934993973586557RRY-16CX-USB                       ZCO-RRY16CXUSB                          USB対応　独立コモンリードリレー接点デジタル出力ユ　　　　　　　　　　　　　　　 00000000494250000000010000000000000000001         2019072701            　　　　　　　　　　　　　　　　　　　　　　　　　　　　　　0000000000            　　　　　　　　　　　　　　　　　　　　　　　　　　　　　　00000000100
2019101713164800013V0000111979989-05            00005RAFK32  000052019090520190727ｺ2113名古屋ベース　　　　　　105093308133ﾀ52934993973547145PCB37PS-1.5P                       ZCO-PCB37PS15P                          両端３７ピンＤ−ＳＵＢコネクタ付シ−ルドケーブル　　　　　　　　　　　　　　　　00000000053250000000010000000000000000001         2019072701            　　　　　　　　　　　　　　　　　　　　　　　　　　　　　　0000000000            　　　　　　　　　　　　　　　　　　　　　　　　　　　　　　00000000100
2019101713164800014V0000111980083-01            00001RAFK30  000012019090520190705ｺ2113浜松ベース　　　　　　　105093308133ﾀ52934993973599656DIO-1616B-LPE                      ZCO-DIO1616BLPE                         Low Profile対応絶縁型デジタル入出力ボード　　　　　　　　　　　　　　　　　　　 00000000285000000000060000000000000000001         2019072701            　　　　　　　　　　　　　　　　　　　　　　　　　　　　　　0000000000            　　　　　　　　　　　　　　　　　　　　　　　　　　　　　　00000000600
2019101713164800015V0000111980083-02            00002RAFK30  000022019090520190705ｺ2113浜松ベース　　　　　　　105093308133ﾀ52934993973564005EPD-50A                            ZCO-EPD50A                              圧着用中継端子台（Ｍ３ネジ、５０点）　　　　　　　　　　　　　　　　　　　　　　00000000106500000000060000000000000000001         2019072701            　　　　　　　　　　　　　　　　　　　　　　　　　　　　　　0000000000            　　　　　　　　　　　　　　　　　　　　　　　　　　　　　　00000000600
2019101713164800016V0000111980083-03            00003RAFK30  000032019090520190705ｺ2113浜松ベース　　　　　　　105093308133ﾀ52934993973563916PCB50PS-1.5P                       ZCO-PCB50PS1.5P                         両端５０ピンＤ−ＳＵＢコネクタシ−ルドケーブル　　　　　　　　　　　　　　　　　00000000055500000000060000000000000000001         2019072701            　　　　　　　　　　　　　　　　　　　　　　　　　　　　　　0000000000            　　　　　　　　　　　　　　　　　　　　　　　　　　　　　　00000000600
2019101713164800017V0000112125851-01            00001RAFK33  000012019101120190727ｺ2113東京ベース　　　　　　　105093308133ﾀ52934993973599656DIO-1616B-LPE                      ZCO-DIO1616BLPE                         Low Profile対応絶縁型デジタル入出力ボード　　　　　　　　　　　　　　　　　　　 00000000285000000000010000000000000000001         2019072701            　　　　　　　　　　　　　　　　　　　　　　　　　　　　　　0000000000            　　　　　　　　　　　　　　　　　　　　　　　　　　　　　　00000000100
2019101713164800018V0000112125851-02            00002RAFK34  000012019101120190727ｺ2113東京ベース　　　　　　　105093308133ﾀ52934993973563947PCE50/37PS-0.5P                    ZCO-PCE5037PS0.5P                       ５０ピン→３７ピン変換ケーブル　　　　　　　　　　　　　　　　　　　　　　　　　00000000053250000000010000000000000000001         2019072701            　　　　　　　　　　　　　　　　　　　　　　　　　　　　　　0000000000            　　　　　　　　　　　　　　　　　　　　　　　　　　　　　　00000000100
2019101713164800019V0000112125851-03            00003RAFK33  000022019101120190727ｺ2113東京ベース　　　　　　　105093308133ﾀ52934993973547145PCB37PS-1.5P                       ZCO-PCB37PS15P                          両端３７ピンＤ−ＳＵＢコネクタ付シ−ルドケーブル　　　　　　　　　　　　　　　　00000000053250000000010000000000000000001         2019072701            　　　　　　　　　　　　　　　　　　　　　　　　　　　　　　0000000000            　　　　　　　　　　　　　　　　　　　　　　　　　　　　　　00000000100
2019101713164800020V0000112125851-04            00004RAFK34  000022019101120190727ｺ2113東京ベース　　　　　　　105093308133ﾀ52934993973585505CM-32L                             ZCO-CM32L                               デジタル入出力信号モニタアクセサリ(32点)　　　　　　　　　　　　　　　　　　　　00000000115500000000010000000000000000001         2019072701            　　　　　　　　　　　　　　　　　　　　　　　　　　　　　　0000000000            　　　　　　　　　　　　　　　　　　　　　　　　　　　　　　00000000100
2019101713164800021V0000112126364-01            00001RAFK31  000012019101120190727ｺ2113京滋ベース　　　　　　　105093308133ﾀ52934993973573045COM-1C-LPE                         ZCO-COM1CLPE                            ＲＳ−２３２Ｃ通信ボード　ＰＣＩ　Ｅｘｐｒｅｓｓ　　　　　　　　　　　　　　　　00000000194250000000050000000000000000001         2019072701            　　　　　　　　　　　　　　　　　　　　　　　　　　　　　　0000000000            　　　　　　　　　　　　　　　　　　　　　　　　　　　　　　00000000500
2019101713164800022V00001DZ256663-01            00001RAFK2Z  000012019090520190705ｺ2113仙台ベース　　　　　　　105093308133ﾀ52934993973579177SMC-4DL-PE                         ZCO-SMC4DLPE                            モーションコントロールボード　　　　　　　　　　　　　　　　　　　　　　　　　　0000000043275000000004000000000000000000104423-0092019072701            　　　　　　　　　　　　　　　　　　　　　　　　　　　　　　0000000000            　　　　　　　　　　　　　　　　　　　　　　　　　　　　　　00000000400
